{
  "contractName": "Marketplace",
  "abi": [
    {
      "inputs": [],
      "payable": false,
      "stateMutability": "nonpayable",
      "type": "constructor"
    },
    {
      "anonymous": false,
      "inputs": [
        {
          "indexed": true,
          "internalType": "address",
          "name": "donor",
          "type": "address"
        },
        {
          "indexed": false,
          "internalType": "uint256",
          "name": "amount",
          "type": "uint256"
        },
        {
          "indexed": false,
          "internalType": "uint256",
          "name": "timestamp",
          "type": "uint256"
        }
      ],
      "name": "DonationReceived",
      "type": "event"
    },
    {
      "anonymous": false,
      "inputs": [
        {
          "indexed": false,
          "internalType": "uint256",
          "name": "id",
          "type": "uint256"
        },
        {
          "indexed": false,
          "internalType": "string",
          "name": "name",
          "type": "string"
        },
        {
          "indexed": false,
          "internalType": "uint256",
          "name": "price",
          "type": "uint256"
        },
        {
          "indexed": false,
          "internalType": "address payable",
          "name": "owner",
          "type": "address"
        },
        {
          "indexed": false,
          "internalType": "bool",
          "name": "purchased",
          "type": "bool"
        },
        {
          "indexed": false,
          "internalType": "string",
          "name": "category",
          "type": "string"
        }
      ],
      "name": "ProductCreated",
      "type": "event"
    },
    {
      "anonymous": false,
      "inputs": [
        {
          "indexed": false,
          "internalType": "uint256",
          "name": "id",
          "type": "uint256"
        },
        {
          "indexed": false,
          "internalType": "string",
          "name": "name",
          "type": "string"
        },
        {
          "indexed": false,
          "internalType": "uint256",
          "name": "price",
          "type": "uint256"
        },
        {
          "indexed": false,
          "internalType": "address payable",
          "name": "owner",
          "type": "address"
        },
        {
          "indexed": false,
          "internalType": "bool",
          "name": "purchased",
          "type": "bool"
        },
        {
          "indexed": false,
          "internalType": "string",
          "name": "category",
          "type": "string"
        }
      ],
      "name": "ProductPurchased",
      "type": "event"
    },
    {
      "anonymous": false,
      "inputs": [
        {
          "indexed": false,
          "internalType": "uint256",
          "name": "id",
          "type": "uint256"
        },
        {
          "indexed": false,
          "internalType": "string",
          "name": "name",
          "type": "string"
        },
        {
          "indexed": false,
          "internalType": "uint256",
          "name": "price",
          "type": "uint256"
        },
        {
          "indexed": false,
          "internalType": "address payable",
          "name": "seller",
          "type": "address"
        },
        {
          "indexed": false,
          "internalType": "address payable",
          "name": "buyer",
          "type": "address"
        }
      ],
      "name": "ProductRefunded",
      "type": "event"
    },
    {
      "payable": true,
      "stateMutability": "payable",
      "type": "fallback"
    },
    {
      "constant": true,
      "inputs": [
        {
          "internalType": "uint256",
          "name": "",
          "type": "uint256"
        }
      ],
      "name": "categories",
      "outputs": [
        {
          "internalType": "string",
          "name": "",
          "type": "string"
        }
      ],
      "payable": false,
      "stateMutability": "view",
      "type": "function"
    },
    {
      "constant": true,
      "inputs": [
        {
          "internalType": "uint256",
          "name": "",
          "type": "uint256"
        }
      ],
      "name": "marketplaceOwners",
      "outputs": [
        {
          "internalType": "address payable",
          "name": "",
          "type": "address"
        }
      ],
      "payable": false,
      "stateMutability": "view",
      "type": "function"
    },
    {
      "constant": true,
      "inputs": [],
      "name": "name",
      "outputs": [
        {
          "internalType": "string",
          "name": "",
          "type": "string"
        }
      ],
      "payable": false,
      "stateMutability": "view",
      "type": "function"
    },
    {
      "constant": true,
      "inputs": [
        {
          "internalType": "address",
          "name": "",
          "type": "address"
        },
        {
          "internalType": "uint256",
          "name": "",
          "type": "uint256"
        }
      ],
      "name": "ownedItems",
      "outputs": [
        {
          "internalType": "uint256",
          "name": "",
          "type": "uint256"
        }
      ],
      "payable": false,
      "stateMutability": "view",
      "type": "function"
    },
    {
      "constant": true,
      "inputs": [],
      "name": "productCount",
      "outputs": [
        {
          "internalType": "uint256",
          "name": "",
          "type": "uint256"
        }
      ],
      "payable": false,
      "stateMutability": "view",
      "type": "function"
    },
    {
      "constant": true,
      "inputs": [
        {
          "internalType": "uint256",
          "name": "",
          "type": "uint256"
        }
      ],
      "name": "products",
      "outputs": [
        {
          "internalType": "uint256",
          "name": "id",
          "type": "uint256"
        },
        {
          "internalType": "string",
          "name": "name",
          "type": "string"
        },
        {
          "internalType": "uint256",
          "name": "price",
          "type": "uint256"
        },
        {
          "internalType": "address payable",
          "name": "owner",
          "type": "address"
        },
        {
          "internalType": "bool",
          "name": "purchased",
          "type": "bool"
        },
        {
          "internalType": "string",
          "name": "category",
          "type": "string"
        },
        {
          "internalType": "address payable",
          "name": "originalSeller",
          "type": "address"
        }
      ],
      "payable": false,
      "stateMutability": "view",
      "type": "function"
    },
    {
      "constant": false,
      "inputs": [],
      "name": "donate",
      "outputs": [],
      "payable": true,
      "stateMutability": "payable",
      "type": "function"
    },
    {
      "constant": false,
      "inputs": [
        {
          "internalType": "string",
          "name": "_name",
          "type": "string"
        },
        {
          "internalType": "uint256",
          "name": "_price",
          "type": "uint256"
        },
        {
          "internalType": "string",
          "name": "_category",
          "type": "string"
        }
      ],
      "name": "createProduct",
      "outputs": [],
      "payable": false,
      "stateMutability": "nonpayable",
      "type": "function"
    },
    {
      "constant": false,
      "inputs": [
        {
          "internalType": "uint256",
          "name": "_id",
          "type": "uint256"
        }
      ],
      "name": "purchaseProduct",
      "outputs": [],
      "payable": true,
      "stateMutability": "payable",
      "type": "function"
    },
    {
      "constant": false,
      "inputs": [
        {
          "internalType": "uint256",
          "name": "_id",
          "type": "uint256"
        }
      ],
      "name": "refundProduct",
      "outputs": [],
      "payable": false,
      "stateMutability": "nonpayable",
      "type": "function"
    },
    {
      "constant": true,
      "inputs": [
        {
          "internalType": "address",
          "name": "_owner",
          "type": "address"
        }
      ],
      "name": "getOwnedItems",
      "outputs": [
        {
          "internalType": "uint256[]",
          "name": "",
          "type": "uint256[]"
        }
      ],
      "payable": false,
      "stateMutability": "view",
      "type": "function"
    },
    {
      "constant": true,
      "inputs": [],
      "name": "getCategories",
      "outputs": [
        {
          "internalType": "string[]",
          "name": "",
          "type": "string[]"
        }
      ],
      "payable": false,
      "stateMutability": "view",
      "type": "function"
    },
    {
      "constant": true,
      "inputs": [],
      "name": "getMarketplaceOwners",
      "outputs": [
        {
          "internalType": "address payable[]",
          "name": "",
          "type": "address[]"
        }
      ],
      "payable": false,
      "stateMutability": "view",
      "type": "function"
    }
  ],
  "bytecode": "0x608060405260006001556040518060a001604052806040518060400160405280600b81526020017f456c656374726f6e69637300000000000000000000000000000000000000000081525081526020016040518060400160405280600881526020017f436c6f7468696e6700000000000000000000000000000000000000000000000081525081526020016040518060400160405280600581526020017f426f6f6b7300000000000000000000000000000000000000000000000000000081525081526020016040518060400160405280600481526020017f486f6d650000000000000000000000000000000000000000000000000000000081525081526020016040518060400160405280600581526020017f4f7468657200000000000000000000000000000000000000000000000000000081525081525060059060056200014b9291906200027e565b503480156200015957600080fd5b506040518060400160405280601b81526020017f4461707020556e6976657273697479204d61726b6574706c616365000000000081525060009080519060200190620001a7929190620002e5565b50600361012390806001815401808255809150509060018203906000526020600020016000909192909190916101000a81548173ffffffffffffffffffffffffffffffffffffffff021916908373ffffffffffffffffffffffffffffffffffffffff16021790555050600361045690806001815401808255809150509060018203906000526020600020016000909192909190916101000a81548173ffffffffffffffffffffffffffffffffffffffff021916908373ffffffffffffffffffffffffffffffffffffffff1602179055505062000498565b828054828255906000526020600020908101928215620002d2579160200282015b82811115620002d1578251829080519060200190620002c09291906200036c565b50916020019190600101906200029f565b5b509050620002e19190620003f3565b5090565b828054600181600116156101000203166002900490600052602060002090601f016020900481019282601f106200032857805160ff191683800117855562000359565b8280016001018555821562000359579182015b82811115620003585782518255916020019190600101906200033b565b5b50905062000368919062000424565b5090565b828054600181600116156101000203166002900490600052602060002090601f016020900481019282601f10620003af57805160ff1916838001178555620003e0565b82800160010185558215620003e0579182015b82811115620003df578251825591602001919060010190620003c2565b5b509050620003ef919062000424565b5090565b6200042191905b808211156200041d57600081816200041391906200044c565b50600101620003fa565b5090565b90565b6200044991905b80821115620004455760008160009055506001016200042b565b5090565b90565b50805460018160011615610100020316600290046000825580601f1062000474575062000495565b601f01602090049060005260206000209081019062000494919062000424565b5b50565b6126ff80620004a86000396000f3fe6080604052600436106100c25760003560e01c80637274d6801161007f578063e0f6ef8711610059578063e0f6ef8714610284578063e417dc35146102af578063ed88c68e146102ec578063ff38ec0f146102f6576100c2565b80637274d680146101db5780637acc0b2014610204578063c6cdbe5e14610247576100c2565b806306fdde03146100c45780632c6b3b6f146100ef57806338e76a031461012c5780633d13cb931461014857806342846534146101735780634db0412c146101b0575b005b3480156100d057600080fd5b506100d961031f565b6040516100e691906121aa565b60405180910390f35b3480156100fb57600080fd5b5061011660048036036101119190810190611b27565b6103bd565b6040516101239190612129565b60405180910390f35b61014660048036036101419190810190611b27565b6103f9565b005b34801561015457600080fd5b5061015d610941565b60405161016a9190612144565b60405180910390f35b34801561017f57600080fd5b5061019a60048036036101959190810190611a6c565b6109cf565b6040516101a7919061228c565b60405180910390f35b3480156101bc57600080fd5b506101c56109fd565b6040516101d29190612166565b60405180910390f35b3480156101e757600080fd5b5061020260048036036101fd9190810190611b27565b610ae6565b005b34801561021057600080fd5b5061022b60048036036102269190810190611b27565b610fac565b60405161023e9796959493929190612385565b60405180910390f35b34801561025357600080fd5b5061026e60048036036102699190810190611b27565b61116b565b60405161027b91906121aa565b60405180910390f35b34801561029057600080fd5b50610299611224565b6040516102a6919061228c565b60405180910390f35b3480156102bb57600080fd5b506102d660048036036102d19190810190611a43565b61122a565b6040516102e39190612188565b60405180910390f35b6102f46112c1565b005b34801561030257600080fd5b5061031d60048036036103189190810190611aa8565b611409565b005b60008054600181600116156101000203166002900480601f0160208091040260200160405190810160405280929190818152602001828054600181600116156101000203166002900480156103b55780601f1061038a576101008083540402835291602001916103b5565b820191906000526020600020905b81548152906001019060200180831161039857829003601f168201915b505050505081565b600381815481106103ca57fe5b906000526020600020016000915054906101000a900473ffffffffffffffffffffffffffffffffffffffff1681565b61040161182e565b600260008381526020019081526020016000206040518060e001604052908160008201548152602001600182018054600181600116156101000203166002900480601f0160208091040260200160405190810160405280929190818152602001828054600181600116156101000203166002900480156104c25780601f10610497576101008083540402835291602001916104c2565b820191906000526020600020905b8154815290600101906020018083116104a557829003601f168201915b50505050508152602001600282015481526020016003820160009054906101000a900473ffffffffffffffffffffffffffffffffffffffff1673ffffffffffffffffffffffffffffffffffffffff1673ffffffffffffffffffffffffffffffffffffffff1681526020016003820160149054906101000a900460ff16151515158152602001600482018054600181600116156101000203166002900480601f0160208091040260200160405190810160405280929190818152602001828054600181600116156101000203166002900480156105df5780601f106105b4576101008083540402835291602001916105df565b820191906000526020600020905b8154815290600101906020018083116105c257829003601f168201915b505050505081526020016005820160009054906101000a900473ffffffffffffffffffffffffffffffffffffffff1673ffffffffffffffffffffffffffffffffffffffff1673ffffffffffffffffffffffffffffffffffffffff16815250509050600081606001519050600082600001511180156106635750600154826000015111155b61066c57600080fd5b816040015134101561067d57600080fd5b81608001511561068c57600080fd5b3373ffffffffffffffffffffffffffffffffffffffff168173ffffffffffffffffffffffffffffffffffffffff1614156106c557600080fd5b33826060019073ffffffffffffffffffffffffffffffffffffffff16908173ffffffffffffffffffffffffffffffffffffffff168152505060018260800190151590811515815250508160026000858152602001908152602001600020600082015181600001556020820151816001019080519060200190610748929190611899565b506040820151816002015560608201518160030160006101000a81548173ffffffffffffffffffffffffffffffffffffffff021916908373ffffffffffffffffffffffffffffffffffffffff16021790555060808201518160030160146101000a81548160ff02191690831515021790555060a08201518160040190805190602001906107d6929190611899565b5060c08201518160050160006101000a81548173ffffffffffffffffffffffffffffffffffffffff021916908373ffffffffffffffffffffffffffffffffffffffff160217905550905050816040015134111561087b573373ffffffffffffffffffffffffffffffffffffffff166108fc836040015134039081150290604051600060405180830381858888f19350505050158015610879573d6000803e3d6000fd5b505b61088581846116aa565b600460003373ffffffffffffffffffffffffffffffffffffffff1673ffffffffffffffffffffffffffffffffffffffff1681526020019081526020016000208390806001815401808255809150509060018203906000526020600020016000909192909190915055507fbfea77e753545970df550ee3f70d23900e5bb71686c8a8c973143a8788e261ff83836020015184604001513360018760a0015160405161093496959493929190612316565b60405180910390a1505050565b606060038054806020026020016040519081016040528092919081815260200182805480156109c557602002820191906000526020600020905b8160009054906101000a900473ffffffffffffffffffffffffffffffffffffffff1673ffffffffffffffffffffffffffffffffffffffff168152602001906001019080831161097b575b5050505050905090565b600460205281600052604060002081815481106109e857fe5b90600052602060002001600091509150505481565b60606005805480602002602001604051908101604052809291908181526020016000905b82821015610add578382906000526020600020018054600181600116156101000203166002900480601f016020809104026020016040519081016040528092919081815260200182805460018160011615610100020316600290048015610ac95780601f10610a9e57610100808354040283529160200191610ac9565b820191906000526020600020905b815481529060010190602001808311610aac57829003601f168201915b505050505081526020019060010190610a21565b50505050905090565b600081118015610af857506001548111155b610b37576040517f08c379a0000000000000000000000000000000000000000000000000000000008152600401610b2e9061224c565b60405180910390fd5b60006002600083815260200190815260200160002090508060030160149054906101000a900460ff16610b9f576040517f08c379a0000000000000000000000000000000000000000000000000000000008152600401610b969061222c565b60405180910390fd5b8060030160009054906101000a900473ffffffffffffffffffffffffffffffffffffffff1673ffffffffffffffffffffffffffffffffffffffff163373ffffffffffffffffffffffffffffffffffffffff1614610c31576040517f08c379a0000000000000000000000000000000000000000000000000000000008152600401610c28906121ec565b60405180910390fd5b8060020154471015610c78576040517f08c379a0000000000000000000000000000000000000000000000000000000008152600401610c6f9061226c565b60405180910390fd5b60008160020154905060008260030160009054906101000a900473ffffffffffffffffffffffffffffffffffffffff16905060008360050160009054906101000a900473ffffffffffffffffffffffffffffffffffffffff169050808460030160006101000a81548173ffffffffffffffffffffffffffffffffffffffff021916908373ffffffffffffffffffffffffffffffffffffffff16021790555060008460030160146101000a81548160ff02191690831515021790555083600260008781526020019081526020016000206000820154816000015560018201816001019080546001816001161561010002031660029004610d78929190611919565b50600282015481600201556003820160009054906101000a900473ffffffffffffffffffffffffffffffffffffffff168160030160006101000a81548173ffffffffffffffffffffffffffffffffffffffff021916908373ffffffffffffffffffffffffffffffffffffffff1602179055506003820160149054906101000a900460ff168160030160146101000a81548160ff02191690831515021790555060048201816004019080546001816001161561010002031660029004610e3e929190611919565b506005820160009054906101000a900473ffffffffffffffffffffffffffffffffffffffff168160050160006101000a81548173ffffffffffffffffffffffffffffffffffffffff021916908373ffffffffffffffffffffffffffffffffffffffff160217905550905050610eb382866116aa565b600460008273ffffffffffffffffffffffffffffffffffffffff1673ffffffffffffffffffffffffffffffffffffffff1681526020019081526020016000208590806001815401808255809150509060018203906000526020600020016000909192909190915055508173ffffffffffffffffffffffffffffffffffffffff166108fc849081150290604051600060405180830381858888f19350505050158015610f62573d6000803e3d6000fd5b507f65d5b611dc7d279043877f00f083bc9cdab5379407cad1b437d53653276c08108585600101858486604051610f9d959493929190612402565b60405180910390a15050505050565b6002602052806000526040600020600091509050806000015490806001018054600181600116156101000203166002900480601f01602080910402602001604051908101604052809291908181526020018280546001816001161561010002031660029004801561105e5780601f106110335761010080835404028352916020019161105e565b820191906000526020600020905b81548152906001019060200180831161104157829003601f168201915b5050505050908060020154908060030160009054906101000a900473ffffffffffffffffffffffffffffffffffffffff16908060030160149054906101000a900460ff1690806004018054600181600116156101000203166002900480601f01602080910402602001604051908101604052809291908181526020018280546001816001161561010002031660029004801561113b5780601f106111105761010080835404028352916020019161113b565b820191906000526020600020905b81548152906001019060200180831161111e57829003601f168201915b5050505050908060050160009054906101000a900473ffffffffffffffffffffffffffffffffffffffff16905087565b6005818154811061117857fe5b906000526020600020016000915090508054600181600116156101000203166002900480601f01602080910402602001604051908101604052809291908181526020018280546001816001161561010002031660029004801561121c5780601f106111f15761010080835404028352916020019161121c565b820191906000526020600020905b8154815290600101906020018083116111ff57829003601f168201915b505050505081565b60015481565b6060600460008373ffffffffffffffffffffffffffffffffffffffff1673ffffffffffffffffffffffffffffffffffffffff1681526020019081526020016000208054806020026020016040519081016040528092919081815260200182805480156112b557602002820191906000526020600020905b8154815260200190600101908083116112a1575b50505050509050919050565b60003411611304576040517f08c379a00000000000000000000000000000000000000000000000000000000081526004016112fb906121cc565b60405180910390fd5b6000600380549050348161131457fe5b04905060008090505b6003805490508110156113b5576003818154811061133757fe5b9060005260206000200160009054906101000a900473ffffffffffffffffffffffffffffffffffffffff1673ffffffffffffffffffffffffffffffffffffffff166108fc839081150290604051600060405180830381858888f193505050501580156113a7573d6000803e3d6000fd5b50808060010191505061131d565b503373ffffffffffffffffffffffffffffffffffffffff167f4b0304ab2f313234b1cea012339c8f8c3bf2c8bb357d81a579cfdb35d2e3d03034426040516113fe92919061245c565b60405180910390a250565b600083511161141757600080fd5b6000821161142457600080fd5b61142d8161178d565b61146c576040517f08c379a00000000000000000000000000000000000000000000000000000000081526004016114639061220c565b60405180910390fd5b6001600081548092919060010191905055506040518060e0016040528060015481526020018481526020018381526020013373ffffffffffffffffffffffffffffffffffffffff1681526020016000151581526020018281526020013373ffffffffffffffffffffffffffffffffffffffff1681525060026000600154815260200190815260200160002060008201518160000155602082015181600101908051906020019061151d929190611899565b506040820151816002015560608201518160030160006101000a81548173ffffffffffffffffffffffffffffffffffffffff021916908373ffffffffffffffffffffffffffffffffffffffff16021790555060808201518160030160146101000a81548160ff02191690831515021790555060a08201518160040190805190602001906115ab929190611899565b5060c08201518160050160006101000a81548173ffffffffffffffffffffffffffffffffffffffff021916908373ffffffffffffffffffffffffffffffffffffffff160217905550905050600460003373ffffffffffffffffffffffffffffffffffffffff1673ffffffffffffffffffffffffffffffffffffffff16815260200190815260200160002060015490806001815401808255809150509060018203906000526020600020016000909192909190915055507fd87ce4bfd22bad4a8ed8acd04d5670a4166b81f64fe53488db885e1987f33d8260015484843360008660405161169d969594939291906122a7565b60405180910390a1505050565b6000600460008473ffffffffffffffffffffffffffffffffffffffff1673ffffffffffffffffffffffffffffffffffffffff168152602001908152602001600020905060008090505b8180549050811015611787578282828154811061170c57fe5b9060005260206000200154141561177a578160018380549050038154811061173057fe5b906000526020600020015482828154811061174757fe5b90600052602060002001819055508180548061175f57fe5b60019003818190600052602060002001600090559055611787565b80806001019150506116f3565b50505050565b600080600090505b60058054905081101561182357826040516020016117b391906120fb565b60405160208183030381529060405280519060200120600582815481106117d657fe5b906000526020600020016040516020016117f09190612112565b604051602081830303815290604052805190602001201415611816576001915050611829565b8080600101915050611795565b50600090505b919050565b6040518060e00160405280600081526020016060815260200160008152602001600073ffffffffffffffffffffffffffffffffffffffff16815260200160001515815260200160608152602001600073ffffffffffffffffffffffffffffffffffffffff1681525090565b828054600181600116156101000203166002900490600052602060002090601f016020900481019282601f106118da57805160ff1916838001178555611908565b82800160010185558215611908579182015b828111156119075782518255916020019190600101906118ec565b5b50905061191591906119a0565b5090565b828054600181600116156101000203166002900490600052602060002090601f016020900481019282601f10611952578054855561198f565b8280016001018555821561198f57600052602060002091601f016020900482015b8281111561198e578254825591600101919060010190611973565b5b50905061199c91906119a0565b5090565b6119c291905b808211156119be5760008160009055506001016119a6565b5090565b90565b6000813590506119d48161268e565b92915050565b600082601f8301126119eb57600080fd5b81356119fe6119f9826124b2565b612485565b91508082526020830160208301858383011115611a1a57600080fd5b611a2583828461263b565b50505092915050565b600081359050611a3d816126a5565b92915050565b600060208284031215611a5557600080fd5b6000611a63848285016119c5565b91505092915050565b60008060408385031215611a7f57600080fd5b6000611a8d858286016119c5565b9250506020611a9e85828601611a2e565b9150509250929050565b600080600060608486031215611abd57600080fd5b600084013567ffffffffffffffff811115611ad757600080fd5b611ae3868287016119da565b9350506020611af486828701611a2e565b925050604084013567ffffffffffffffff811115611b1157600080fd5b611b1d868287016119da565b9150509250925092565b600060208284031215611b3957600080fd5b6000611b4784828501611a2e565b91505092915050565b6000611b5c8383611b94565b60208301905092915050565b6000611b748383611d5c565b905092915050565b6000611b8883836120dd565b60208301905092915050565b611b9d816125f3565b82525050565b611bac816125f3565b82525050565b6000611bbd82612523565b611bc78185612581565b9350611bd2836124de565b8060005b83811015611c03578151611bea8882611b50565b9750611bf58361255a565b925050600181019050611bd6565b5085935050505092915050565b6000611c1b8261252e565b611c258185612592565b935083602082028501611c37856124ee565b8060005b85811015611c735784840389528151611c548582611b68565b9450611c5f83612567565b925060208a01995050600181019050611c3b565b50829750879550505050505092915050565b6000611c9082612539565b611c9a81856125a3565b9350611ca5836124fe565b8060005b83811015611cd6578151611cbd8882611b7c565b9750611cc883612574565b925050600181019050611ca9565b5085935050505092915050565b611cec81612605565b82525050565b6000611cfd8261254f565b611d0781856125c5565b9350611d1781856020860161264a565b611d208161267d565b840191505092915050565b6000611d368261254f565b611d4081856125d6565b9350611d5081856020860161264a565b80840191505092915050565b6000611d6782612544565b611d7181856125b4565b9350611d8181856020860161264a565b611d8a8161267d565b840191505092915050565b6000611da082612544565b611daa81856125c5565b9350611dba81856020860161264a565b611dc38161267d565b840191505092915050565b600081546001811660008114611deb5760018114611e1157611e55565b607f6002830416611dfc81876125c5565b955060ff198316865260208601935050611e55565b60028204611e1f81876125c5565b9550611e2a8561250e565b60005b82811015611e4c57815481890152600182019150602081019050611e2d565b80880195505050505b505092915050565b600081546001811660008114611e7a5760018114611e9f57611ee3565b607f6002830416611e8b81876125d6565b955060ff1983168652808601935050611ee3565b60028204611ead81876125d6565b9550611eb88561250e565b60005b82811015611eda57815481890152600182019150602081019050611ebb565b82880195505050505b505092915050565b6000611ef86026836125c5565b91507f446f6e6174696f6e20616d6f756e74206d75737420626520677265617465722060008301527f7468616e203000000000000000000000000000000000000000000000000000006020830152604082019050919050565b6000611f5e602b836125c5565b91507f4f6e6c79207468652063757272656e74206f776e65722063616e20726571756560008301527f7374206120726566756e640000000000000000000000000000000000000000006020830152604082019050919050565b6000611fc46010836125c5565b91507f496e76616c69642063617465676f7279000000000000000000000000000000006000830152602082019050919050565b60006120046018836125c5565b91507f50726f64756374206973206e6f742070757263686173656400000000000000006000830152602082019050919050565b60006120446012836125c5565b91507f496e76616c69642070726f6475637420494400000000000000000000000000006000830152602082019050919050565b6000612084602c836125c5565b91507f436f6e74726163742068617320696e73756666696369656e742062616c616e6360008301527f6520666f7220726566756e6400000000000000000000000000000000000000006020830152604082019050919050565b6120e681612631565b82525050565b6120f581612631565b82525050565b60006121078284611d2b565b915081905092915050565b600061211e8284611e5d565b915081905092915050565b600060208201905061213e6000830184611ba3565b92915050565b6000602082019050818103600083015261215e8184611bb2565b905092915050565b600060208201905081810360008301526121808184611c10565b905092915050565b600060208201905081810360008301526121a28184611c85565b905092915050565b600060208201905081810360008301526121c48184611d95565b905092915050565b600060208201905081810360008301526121e581611eeb565b9050919050565b6000602082019050818103600083015261220581611f51565b9050919050565b6000602082019050818103600083015261222581611fb7565b9050919050565b6000602082019050818103600083015261224581611ff7565b9050919050565b6000602082019050818103600083015261226581612037565b9050919050565b6000602082019050818103600083015261228581612077565b9050919050565b60006020820190506122a160008301846120ec565b92915050565b600060c0820190506122bc60008301896120ec565b81810360208301526122ce8188611cf2565b90506122dd60408301876120ec565b6122ea6060830186611ba3565b6122f76080830185611ce3565b81810360a08301526123098184611cf2565b9050979650505050505050565b600060c08201905061232b60008301896120ec565b818103602083015261233d8188611d95565b905061234c60408301876120ec565b6123596060830186611ba3565b6123666080830185611ce3565b81810360a08301526123788184611d95565b9050979650505050505050565b600060e08201905061239a600083018a6120ec565b81810360208301526123ac8189611d95565b90506123bb60408301886120ec565b6123c86060830187611ba3565b6123d56080830186611ce3565b81810360a08301526123e78185611d95565b90506123f660c0830184611ba3565b98975050505050505050565b600060a08201905061241760008301886120ec565b81810360208301526124298187611dce565b905061243860408301866120ec565b6124456060830185611ba3565b6124526080830184611ba3565b9695505050505050565b600060408201905061247160008301856120ec565b61247e60208301846120ec565b9392505050565b6000604051905081810181811067ffffffffffffffff821117156124a857600080fd5b8060405250919050565b600067ffffffffffffffff8211156124c957600080fd5b601f19601f8301169050602081019050919050565b6000819050602082019050919050565b6000819050602082019050919050565b6000819050602082019050919050565b60008190508160005260206000209050919050565b600081519050919050565b600081519050919050565b600081519050919050565b600081519050919050565b600081519050919050565b6000602082019050919050565b6000602082019050919050565b6000602082019050919050565b600082825260208201905092915050565b600082825260208201905092915050565b600082825260208201905092915050565b600082825260208201905092915050565b600082825260208201905092915050565b600081905092915050565b60006125ec82612611565b9050919050565b60006125fe82612611565b9050919050565b60008115159050919050565b600073ffffffffffffffffffffffffffffffffffffffff82169050919050565b6000819050919050565b82818337600083830152505050565b60005b8381101561266857808201518184015260208101905061264d565b83811115612677576000848401525b50505050565b6000601f19601f8301169050919050565b612697816125e1565b81146126a257600080fd5b50565b6126ae81612631565b81146126b957600080fd5b5056fea365627a7a72315820f8cd338b3d27a2bc626c8b1d0de62e98cc1b6ddbe7af83dc6ae2bd47cdc42d856c6578706572696d656e74616cf564736f6c63430005100040",
  "source": "pragma solidity ^0.5.0;\npragma experimental ABIEncoderV2;\n\ncontract Marketplace {\n    string public name;\n    uint public productCount = 0;\n    mapping(uint => Product) public products;\n    address payable[] public marketplaceOwners;\n    \n    // Mapping to track items owned by each address\n    mapping(address => uint[]) public ownedItems;\n    \n    // Define available categories\n    string[] public categories = [\"Electronics\", \"Clothing\", \"Books\", \"Home\", \"Other\"];\n    \n    struct Product {\n        uint id;\n        string name;\n        uint price;\n        address payable owner;\n        bool purchased;\n        string category;\n        address payable originalSeller;  // Track the original seller\n    }\n\n    event ProductCreated(\n        uint id,\n        string name,\n        uint price,\n        address payable owner,\n        bool purchased,\n        string category\n    );\n\n    event ProductPurchased(\n        uint id,\n        string name,\n        uint price,\n        address payable owner,\n        bool purchased,\n        string category\n    );\n\n    event DonationReceived(\n        address indexed donor,\n        uint amount,\n        uint timestamp\n    );\n\n    event ProductRefunded(\n        uint id,\n        string name,\n        uint price,\n        address payable seller,\n        address payable buyer\n    );\n\n    constructor() public {\n        name = \"Dapp University Marketplace\";\n        // Add marketplace owners\n        marketplaceOwners.push(address(0x123)); // Replace with Spencer's address\n        marketplaceOwners.push(address(0x456)); // Replace with Zian's address\n    }\n\n    function donate() public payable {\n        require(msg.value > 0, \"Donation amount must be greater than 0\");\n        \n        // Split the donation equally between owners\n        uint shareAmount = msg.value / marketplaceOwners.length;\n        for(uint i = 0; i < marketplaceOwners.length; i++) {\n            marketplaceOwners[i].transfer(shareAmount);\n        }\n        \n        // Emit donation event\n        emit DonationReceived(msg.sender, msg.value, now);\n    }\n\n    // Helper function to validate category\n    function isValidCategory(string memory _category) internal view returns (bool) {\n        for (uint i = 0; i < categories.length; i++) {\n            if (keccak256(abi.encodePacked(categories[i])) == keccak256(abi.encodePacked(_category))) {\n                return true;\n            }\n        }\n        return false;\n    }\n\n    function createProduct(string memory _name, uint _price, string memory _category) public {\n        // Require a valid name\n        require(bytes(_name).length > 0);\n        // Require a valid price\n        require(_price > 0);\n        // Require a valid category\n        require(isValidCategory(_category), \"Invalid category\");\n        // Increment product count\n        productCount ++;\n        // Create the product\n        products[productCount] = Product(productCount, _name, _price, msg.sender, false, _category, msg.sender);\n        // Add to owner's items\n        ownedItems[msg.sender].push(productCount);\n        // Trigger an event\n        emit ProductCreated(productCount, _name, _price, msg.sender, false, _category);\n    }\n\n    function purchaseProduct(uint _id) public payable {\n        // Fetch the product\n        Product memory _product = products[_id];\n        // Fetch the owner\n        address payable _seller = _product.owner;\n        // Make sure the product has a valid id\n        require(_product.id > 0 && _product.id <= productCount);\n        // Require that there is enough Ether in the transaction\n        require(msg.value >= _product.price);\n        // Require that the product has not been purchased already\n        require(!_product.purchased);\n        // Require that the buyer is not the seller\n        require(_seller != msg.sender);\n        // Transfer ownership to the buyer\n        _product.owner = msg.sender;\n        // Mark as purchased\n        _product.purchased = true;\n        // Update the product\n        products[_id] = _product;\n        // Store the payment in the contract for potential refund\n        // The excess payment is returned to the buyer\n        if (msg.value > _product.price) {\n            msg.sender.transfer(msg.value - _product.price);\n        }\n        // Remove from seller's items and add to buyer's items\n        _removeFromOwnedItems(_seller, _id);\n        ownedItems[msg.sender].push(_id);\n        // Trigger an event\n        emit ProductPurchased(_id, _product.name, _product.price, msg.sender, true, _product.category);\n    }\n\n    // Add fallback function to allow contract to receive ETH\n    function() external payable {}\n\n    function refundProduct(uint _id) public {\n        require(_id > 0 && _id <= productCount, \"Invalid product ID\");\n        Product storage _product = products[_id];\n        require(_product.purchased, \"Product is not purchased\");\n        require(msg.sender == _product.owner, \"Only the current owner can request a refund\");\n        require(address(this).balance >= _product.price, \"Contract has insufficient balance for refund\");\n\n        // Store values before state changes\n        uint refundAmount = _product.price;\n        address payable buyer = _product.owner;\n        address payable seller = _product.originalSeller;\n\n        // Update state before transfer\n        _product.owner = seller;\n        _product.purchased = false;\n        products[_id] = _product;\n\n        // Update ownership tracking\n        _removeFromOwnedItems(buyer, _id);\n        ownedItems[seller].push(_id);\n\n        // Transfer ETH to buyer using transfer instead of call\n        buyer.transfer(refundAmount);\n\n        // Emit event\n        emit ProductRefunded(_id, _product.name, refundAmount, seller, buyer);\n    }\n\n    // Helper function to remove an item from ownedItems\n    function _removeFromOwnedItems(address _owner, uint _id) internal {\n        uint[] storage items = ownedItems[_owner];\n        for (uint i = 0; i < items.length; i++) {\n            if (items[i] == _id) {\n                items[i] = items[items.length - 1];\n                items.pop();\n                break;\n            }\n        }\n    }\n\n    // Function to get items owned by an address\n    function getOwnedItems(address _owner) public view returns (uint[] memory) {\n        return ownedItems[_owner];\n    }\n\n    // Helper function to get all categories\n    function getCategories() public view returns (string[] memory) {\n        return categories;\n    }\n\n    // Helper function to get marketplace owners\n    function getMarketplaceOwners() public view returns (address payable[] memory) {\n        return marketplaceOwners;\n    }\n}\n",
  "sourcePath": "/Users/zianzhou/Desktop/marketplace/src/contracts/Marketplace.sol",
  "compiler": {
    "name": "solc",
    "version": "0.5.16+commit.9c3226ce.Emscripten.clang"
  },
  "schemaVersion": "3.4.16",
  "updatedAt": "2025-04-20T16:29:06.110Z",
  "networkType": "ethereum",
  "devdoc": {
    "methods": {}
  },
  "userdoc": {
    "methods": {}
  }
}