{
  "contractName": "Marketplace",
  "abi": [
    {
      "inputs": [],
      "payable": false,
      "stateMutability": "nonpayable",
      "type": "constructor"
    },
    {
      "anonymous": false,
      "inputs": [
        {
          "indexed": true,
          "internalType": "address",
          "name": "donor",
          "type": "address"
        },
        {
          "indexed": false,
          "internalType": "uint256",
          "name": "amount",
          "type": "uint256"
        },
        {
          "indexed": false,
          "internalType": "uint256",
          "name": "timestamp",
          "type": "uint256"
        }
      ],
      "name": "DonationReceived",
      "type": "event"
    },
    {
      "anonymous": false,
      "inputs": [
        {
          "indexed": false,
          "internalType": "uint256",
          "name": "id",
          "type": "uint256"
        },
        {
          "indexed": false,
          "internalType": "string",
          "name": "name",
          "type": "string"
        },
        {
          "indexed": false,
          "internalType": "uint256",
          "name": "price",
          "type": "uint256"
        },
        {
          "indexed": false,
          "internalType": "address payable",
          "name": "owner",
          "type": "address"
        },
        {
          "indexed": false,
          "internalType": "bool",
          "name": "purchased",
          "type": "bool"
        },
        {
          "indexed": false,
          "internalType": "string",
          "name": "category",
          "type": "string"
        }
      ],
      "name": "ProductCreated",
      "type": "event"
    },
    {
      "anonymous": false,
      "inputs": [
        {
          "indexed": false,
          "internalType": "uint256",
          "name": "id",
          "type": "uint256"
        },
        {
          "indexed": false,
          "internalType": "string",
          "name": "name",
          "type": "string"
        },
        {
          "indexed": false,
          "internalType": "uint256",
          "name": "price",
          "type": "uint256"
        },
        {
          "indexed": false,
          "internalType": "address payable",
          "name": "owner",
          "type": "address"
        },
        {
          "indexed": false,
          "internalType": "bool",
          "name": "purchased",
          "type": "bool"
        },
        {
          "indexed": false,
          "internalType": "string",
          "name": "category",
          "type": "string"
        }
      ],
      "name": "ProductPurchased",
      "type": "event"
    },
    {
      "constant": true,
      "inputs": [
        {
          "internalType": "uint256",
          "name": "",
          "type": "uint256"
        }
      ],
      "name": "categories",
      "outputs": [
        {
          "internalType": "string",
          "name": "",
          "type": "string"
        }
      ],
      "payable": false,
      "stateMutability": "view",
      "type": "function"
    },
    {
      "constant": true,
      "inputs": [
        {
          "internalType": "uint256",
          "name": "",
          "type": "uint256"
        }
      ],
      "name": "marketplaceOwners",
      "outputs": [
        {
          "internalType": "address payable",
          "name": "",
          "type": "address"
        }
      ],
      "payable": false,
      "stateMutability": "view",
      "type": "function"
    },
    {
      "constant": true,
      "inputs": [],
      "name": "name",
      "outputs": [
        {
          "internalType": "string",
          "name": "",
          "type": "string"
        }
      ],
      "payable": false,
      "stateMutability": "view",
      "type": "function"
    },
    {
      "constant": true,
      "inputs": [
        {
          "internalType": "address",
          "name": "",
          "type": "address"
        },
        {
          "internalType": "uint256",
          "name": "",
          "type": "uint256"
        }
      ],
      "name": "ownedItems",
      "outputs": [
        {
          "internalType": "uint256",
          "name": "",
          "type": "uint256"
        }
      ],
      "payable": false,
      "stateMutability": "view",
      "type": "function"
    },
    {
      "constant": true,
      "inputs": [],
      "name": "productCount",
      "outputs": [
        {
          "internalType": "uint256",
          "name": "",
          "type": "uint256"
        }
      ],
      "payable": false,
      "stateMutability": "view",
      "type": "function"
    },
    {
      "constant": true,
      "inputs": [
        {
          "internalType": "uint256",
          "name": "",
          "type": "uint256"
        }
      ],
      "name": "products",
      "outputs": [
        {
          "internalType": "uint256",
          "name": "id",
          "type": "uint256"
        },
        {
          "internalType": "string",
          "name": "name",
          "type": "string"
        },
        {
          "internalType": "uint256",
          "name": "price",
          "type": "uint256"
        },
        {
          "internalType": "address payable",
          "name": "owner",
          "type": "address"
        },
        {
          "internalType": "bool",
          "name": "purchased",
          "type": "bool"
        },
        {
          "internalType": "string",
          "name": "category",
          "type": "string"
        }
      ],
      "payable": false,
      "stateMutability": "view",
      "type": "function"
    },
    {
      "constant": false,
      "inputs": [],
      "name": "donate",
      "outputs": [],
      "payable": true,
      "stateMutability": "payable",
      "type": "function"
    },
    {
      "constant": false,
      "inputs": [
        {
          "internalType": "string",
          "name": "_name",
          "type": "string"
        },
        {
          "internalType": "uint256",
          "name": "_price",
          "type": "uint256"
        },
        {
          "internalType": "string",
          "name": "_category",
          "type": "string"
        }
      ],
      "name": "createProduct",
      "outputs": [],
      "payable": false,
      "stateMutability": "nonpayable",
      "type": "function"
    },
    {
      "constant": false,
      "inputs": [
        {
          "internalType": "uint256",
          "name": "_id",
          "type": "uint256"
        }
      ],
      "name": "purchaseProduct",
      "outputs": [],
      "payable": true,
      "stateMutability": "payable",
      "type": "function"
    },
    {
      "constant": true,
      "inputs": [
        {
          "internalType": "address",
          "name": "_owner",
          "type": "address"
        }
      ],
      "name": "getOwnedItems",
      "outputs": [
        {
          "internalType": "uint256[]",
          "name": "",
          "type": "uint256[]"
        }
      ],
      "payable": false,
      "stateMutability": "view",
      "type": "function"
    },
    {
      "constant": true,
      "inputs": [],
      "name": "getCategories",
      "outputs": [
        {
          "internalType": "string[]",
          "name": "",
          "type": "string[]"
        }
      ],
      "payable": false,
      "stateMutability": "view",
      "type": "function"
    },
    {
      "constant": true,
      "inputs": [],
      "name": "getMarketplaceOwners",
      "outputs": [
        {
          "internalType": "address payable[]",
          "name": "",
          "type": "address[]"
        }
      ],
      "payable": false,
      "stateMutability": "view",
      "type": "function"
    }
  ],
  "bytecode": "0x608060405260006001556040518060a001604052806040518060400160405280600b81526020017f456c656374726f6e69637300000000000000000000000000000000000000000081525081526020016040518060400160405280600881526020017f436c6f7468696e6700000000000000000000000000000000000000000000000081525081526020016040518060400160405280600581526020017f426f6f6b7300000000000000000000000000000000000000000000000000000081525081526020016040518060400160405280600481526020017f486f6d650000000000000000000000000000000000000000000000000000000081525081526020016040518060400160405280600581526020017f4f7468657200000000000000000000000000000000000000000000000000000081525081525060059060056200014b9291906200027e565b503480156200015957600080fd5b506040518060400160405280601b81526020017f4461707020556e6976657273697479204d61726b6574706c616365000000000081525060009080519060200190620001a7929190620002e5565b50600361012390806001815401808255809150509060018203906000526020600020016000909192909190916101000a81548173ffffffffffffffffffffffffffffffffffffffff021916908373ffffffffffffffffffffffffffffffffffffffff16021790555050600361045690806001815401808255809150509060018203906000526020600020016000909192909190916101000a81548173ffffffffffffffffffffffffffffffffffffffff021916908373ffffffffffffffffffffffffffffffffffffffff1602179055505062000498565b828054828255906000526020600020908101928215620002d2579160200282015b82811115620002d1578251829080519060200190620002c09291906200036c565b50916020019190600101906200029f565b5b509050620002e19190620003f3565b5090565b828054600181600116156101000203166002900490600052602060002090601f016020900481019282601f106200032857805160ff191683800117855562000359565b8280016001018555821562000359579182015b82811115620003585782518255916020019190600101906200033b565b5b50905062000368919062000424565b5090565b828054600181600116156101000203166002900490600052602060002090601f016020900481019282601f10620003af57805160ff1916838001178555620003e0565b82800160010185558215620003e0579182015b82811115620003df578251825591602001919060010190620003c2565b5b509050620003ef919062000424565b5090565b6200042191905b808211156200041d57600081816200041391906200044c565b50600101620003fa565b5090565b90565b6200044991905b80821115620004455760008160009055506001016200042b565b5090565b90565b50805460018160011615610100020316600290046000825580601f1062000474575062000495565b601f01602090049060005260206000209081019062000494919062000424565b5b50565b611cea80620004a86000396000f3fe6080604052600436106100a75760003560e01c80637acc0b20116100645780637acc0b20146101c3578063c6cdbe5e14610205578063e0f6ef8714610242578063e417dc351461026d578063ed88c68e146102aa578063ff38ec0f146102b4576100a7565b806306fdde03146100ac5780632c6b3b6f146100d757806338e76a03146101145780633d13cb9314610130578063428465341461015b5780634db0412c14610198575b600080fd5b3480156100b857600080fd5b506100c16102dd565b6040516100ce91906118ec565b60405180910390f35b3480156100e357600080fd5b506100fe60048036036100f99190810190611444565b61037b565b60405161010b919061186b565b60405180910390f35b61012e60048036036101299190810190611444565b6103b7565b005b34801561013c57600080fd5b50610145610851565b6040516101529190611886565b60405180910390f35b34801561016757600080fd5b50610182600480360361017d9190810190611389565b6108df565b60405161018f919061194e565b60405180910390f35b3480156101a457600080fd5b506101ad61090d565b6040516101ba91906118a8565b60405180910390f35b3480156101cf57600080fd5b506101ea60048036036101e59190810190611444565b6109f6565b6040516101fc969594939291906119d8565b60405180910390f35b34801561021157600080fd5b5061022c60048036036102279190810190611444565b610b8f565b60405161023991906118ec565b60405180910390f35b34801561024e57600080fd5b50610257610c48565b604051610264919061194e565b60405180910390f35b34801561027957600080fd5b50610294600480360361028f9190810190611360565b610c4e565b6040516102a191906118ca565b60405180910390f35b6102b2610ce5565b005b3480156102c057600080fd5b506102db60048036036102d691908101906113c5565b610e2d565b005b60008054600181600116156101000203166002900480601f0160208091040260200160405190810160405280929190818152602001828054600181600116156101000203166002900480156103735780601f1061034857610100808354040283529160200191610373565b820191906000526020600020905b81548152906001019060200180831161035657829003601f168201915b505050505081565b6003818154811061038857fe5b906000526020600020016000915054906101000a900473ffffffffffffffffffffffffffffffffffffffff1681565b6103bf6111ef565b600260008381526020019081526020016000206040518060c001604052908160008201548152602001600182018054600181600116156101000203166002900480601f0160208091040260200160405190810160405280929190818152602001828054600181600116156101000203166002900480156104805780601f1061045557610100808354040283529160200191610480565b820191906000526020600020905b81548152906001019060200180831161046357829003601f168201915b50505050508152602001600282015481526020016003820160009054906101000a900473ffffffffffffffffffffffffffffffffffffffff1673ffffffffffffffffffffffffffffffffffffffff1673ffffffffffffffffffffffffffffffffffffffff1681526020016003820160149054906101000a900460ff16151515158152602001600482018054600181600116156101000203166002900480601f01602080910402602001604051908101604052809291908181526020018280546001816001161561010002031660029004801561059d5780601f106105725761010080835404028352916020019161059d565b820191906000526020600020905b81548152906001019060200180831161058057829003601f168201915b5050505050815250509050600081606001519050600082600001511180156105cb5750600154826000015111155b6105d457600080fd5b81604001513410156105e557600080fd5b8160800151156105f457600080fd5b3373ffffffffffffffffffffffffffffffffffffffff168173ffffffffffffffffffffffffffffffffffffffff16141561062d57600080fd5b33826060019073ffffffffffffffffffffffffffffffffffffffff16908173ffffffffffffffffffffffffffffffffffffffff1681525050600182608001901515908115158152505081600260008581526020019081526020016000206000820151816000015560208201518160010190805190602001906106b092919061123d565b506040820151816002015560608201518160030160006101000a81548173ffffffffffffffffffffffffffffffffffffffff021916908373ffffffffffffffffffffffffffffffffffffffff16021790555060808201518160030160146101000a81548160ff02191690831515021790555060a082015181600401908051906020019061073e92919061123d565b509050508073ffffffffffffffffffffffffffffffffffffffff166108fc349081150290604051600060405180830381858888f19350505050158015610788573d6000803e3d6000fd5b50610793818461106b565b600460003373ffffffffffffffffffffffffffffffffffffffff1673ffffffffffffffffffffffffffffffffffffffff1681526020019081526020016000208390806001815401808255809150509060018203906000526020600020016000909192909190915055507fbfea77e753545970df550ee3f70d23900e5bb71686c8a8c973143a8788e261ff600154836020015184604001513360018760a00151604051610844969594939291906119d8565b60405180910390a1505050565b606060038054806020026020016040519081016040528092919081815260200182805480156108d557602002820191906000526020600020905b8160009054906101000a900473ffffffffffffffffffffffffffffffffffffffff1673ffffffffffffffffffffffffffffffffffffffff168152602001906001019080831161088b575b5050505050905090565b600460205281600052604060002081815481106108f857fe5b90600052602060002001600091509150505481565b60606005805480602002602001604051908101604052809291908181526020016000905b828210156109ed578382906000526020600020018054600181600116156101000203166002900480601f0160208091040260200160405190810160405280929190818152602001828054600181600116156101000203166002900480156109d95780601f106109ae576101008083540402835291602001916109d9565b820191906000526020600020905b8154815290600101906020018083116109bc57829003601f168201915b505050505081526020019060010190610931565b50505050905090565b6002602052806000526040600020600091509050806000015490806001018054600181600116156101000203166002900480601f016020809104026020016040519081016040528092919081815260200182805460018160011615610100020316600290048015610aa85780601f10610a7d57610100808354040283529160200191610aa8565b820191906000526020600020905b815481529060010190602001808311610a8b57829003601f168201915b5050505050908060020154908060030160009054906101000a900473ffffffffffffffffffffffffffffffffffffffff16908060030160149054906101000a900460ff1690806004018054600181600116156101000203166002900480601f016020809104026020016040519081016040528092919081815260200182805460018160011615610100020316600290048015610b855780601f10610b5a57610100808354040283529160200191610b85565b820191906000526020600020905b815481529060010190602001808311610b6857829003601f168201915b5050505050905086565b60058181548110610b9c57fe5b906000526020600020016000915090508054600181600116156101000203166002900480601f016020809104026020016040519081016040528092919081815260200182805460018160011615610100020316600290048015610c405780601f10610c1557610100808354040283529160200191610c40565b820191906000526020600020905b815481529060010190602001808311610c2357829003601f168201915b505050505081565b60015481565b6060600460008373ffffffffffffffffffffffffffffffffffffffff1673ffffffffffffffffffffffffffffffffffffffff168152602001908152602001600020805480602002602001604051908101604052809291908181526020018280548015610cd957602002820191906000526020600020905b815481526020019060010190808311610cc5575b50505050509050919050565b60003411610d28576040517f08c379a0000000000000000000000000000000000000000000000000000000008152600401610d1f9061190e565b60405180910390fd5b60006003805490503481610d3857fe5b04905060008090505b600380549050811015610dd95760038181548110610d5b57fe5b9060005260206000200160009054906101000a900473ffffffffffffffffffffffffffffffffffffffff1673ffffffffffffffffffffffffffffffffffffffff166108fc839081150290604051600060405180830381858888f19350505050158015610dcb573d6000803e3d6000fd5b508080600101915050610d41565b503373ffffffffffffffffffffffffffffffffffffffff167f4b0304ab2f313234b1cea012339c8f8c3bf2c8bb357d81a579cfdb35d2e3d0303442604051610e22929190611a47565b60405180910390a250565b6000835111610e3b57600080fd5b60008211610e4857600080fd5b610e518161114e565b610e90576040517f08c379a0000000000000000000000000000000000000000000000000000000008152600401610e879061192e565b60405180910390fd5b6001600081548092919060010191905055506040518060c0016040528060015481526020018481526020018381526020013373ffffffffffffffffffffffffffffffffffffffff16815260200160001515815260200182815250600260006001548152602001908152602001600020600082015181600001556020820151816001019080519060200190610f2592919061123d565b506040820151816002015560608201518160030160006101000a81548173ffffffffffffffffffffffffffffffffffffffff021916908373ffffffffffffffffffffffffffffffffffffffff16021790555060808201518160030160146101000a81548160ff02191690831515021790555060a0820151816004019080519060200190610fb392919061123d565b50905050600460003373ffffffffffffffffffffffffffffffffffffffff1673ffffffffffffffffffffffffffffffffffffffff16815260200190815260200160002060015490806001815401808255809150509060018203906000526020600020016000909192909190915055507fd87ce4bfd22bad4a8ed8acd04d5670a4166b81f64fe53488db885e1987f33d8260015484843360008660405161105e96959493929190611969565b60405180910390a1505050565b6000600460008473ffffffffffffffffffffffffffffffffffffffff1673ffffffffffffffffffffffffffffffffffffffff168152602001908152602001600020905060008090505b818054905081101561114857828282815481106110cd57fe5b9060005260206000200154141561113b57816001838054905003815481106110f157fe5b906000526020600020015482828154811061110857fe5b90600052602060002001819055508180548061112057fe5b60019003818190600052602060002001600090559055611148565b80806001019150506110b4565b50505050565b600080600090505b6005805490508110156111e45782604051602001611174919061183d565b604051602081830303815290604052805190602001206005828154811061119757fe5b906000526020600020016040516020016111b19190611854565b6040516020818303038152906040528051906020012014156111d75760019150506111ea565b8080600101915050611156565b50600090505b919050565b6040518060c00160405280600081526020016060815260200160008152602001600073ffffffffffffffffffffffffffffffffffffffff168152602001600015158152602001606081525090565b828054600181600116156101000203166002900490600052602060002090601f016020900481019282601f1061127e57805160ff19168380011785556112ac565b828001600101855582156112ac579182015b828111156112ab578251825591602001919060010190611290565b5b5090506112b991906112bd565b5090565b6112df91905b808211156112db5760008160009055506001016112c3565b5090565b90565b6000813590506112f181611c79565b92915050565b600082601f83011261130857600080fd5b813561131b61131682611a9d565b611a70565b9150808252602083016020830185838301111561133757600080fd5b611342838284611c26565b50505092915050565b60008135905061135a81611c90565b92915050565b60006020828403121561137257600080fd5b6000611380848285016112e2565b91505092915050565b6000806040838503121561139c57600080fd5b60006113aa858286016112e2565b92505060206113bb8582860161134b565b9150509250929050565b6000806000606084860312156113da57600080fd5b600084013567ffffffffffffffff8111156113f457600080fd5b611400868287016112f7565b93505060206114118682870161134b565b925050604084013567ffffffffffffffff81111561142e57600080fd5b61143a868287016112f7565b9150509250925092565b60006020828403121561145657600080fd5b60006114648482850161134b565b91505092915050565b600061147983836114b1565b60208301905092915050565b60006114918383611679565b905092915050565b60006114a5838361181f565b60208301905092915050565b6114ba81611bde565b82525050565b6114c981611bde565b82525050565b60006114da82611b0e565b6114e48185611b6c565b93506114ef83611ac9565b8060005b83811015611520578151611507888261146d565b975061151283611b45565b9250506001810190506114f3565b5085935050505092915050565b600061153882611b19565b6115428185611b7d565b93508360208202850161155485611ad9565b8060005b8581101561159057848403895281516115718582611485565b945061157c83611b52565b925060208a01995050600181019050611558565b50829750879550505050505092915050565b60006115ad82611b24565b6115b78185611b8e565b93506115c283611ae9565b8060005b838110156115f35781516115da8882611499565b97506115e583611b5f565b9250506001810190506115c6565b5085935050505092915050565b61160981611bf0565b82525050565b600061161a82611b3a565b6116248185611bb0565b9350611634818560208601611c35565b61163d81611c68565b840191505092915050565b600061165382611b3a565b61165d8185611bc1565b935061166d818560208601611c35565b80840191505092915050565b600061168482611b2f565b61168e8185611b9f565b935061169e818560208601611c35565b6116a781611c68565b840191505092915050565b60006116bd82611b2f565b6116c78185611bb0565b93506116d7818560208601611c35565b6116e081611c68565b840191505092915050565b600081546001811660008114611708576001811461172d57611771565b607f60028304166117198187611bc1565b955060ff1983168652808601935050611771565b6002820461173b8187611bc1565b955061174685611af9565b60005b8281101561176857815481890152600182019150602081019050611749565b82880195505050505b505092915050565b6000611786602683611bb0565b91507f446f6e6174696f6e20616d6f756e74206d75737420626520677265617465722060008301527f7468616e203000000000000000000000000000000000000000000000000000006020830152604082019050919050565b60006117ec601083611bb0565b91507f496e76616c69642063617465676f7279000000000000000000000000000000006000830152602082019050919050565b61182881611c1c565b82525050565b61183781611c1c565b82525050565b60006118498284611648565b915081905092915050565b600061186082846116eb565b915081905092915050565b600060208201905061188060008301846114c0565b92915050565b600060208201905081810360008301526118a081846114cf565b905092915050565b600060208201905081810360008301526118c2818461152d565b905092915050565b600060208201905081810360008301526118e481846115a2565b905092915050565b6000602082019050818103600083015261190681846116b2565b905092915050565b6000602082019050818103600083015261192781611779565b9050919050565b60006020820190508181036000830152611947816117df565b9050919050565b6000602082019050611963600083018461182e565b92915050565b600060c08201905061197e600083018961182e565b8181036020830152611990818861160f565b905061199f604083018761182e565b6119ac60608301866114c0565b6119b96080830185611600565b81810360a08301526119cb818461160f565b9050979650505050505050565b600060c0820190506119ed600083018961182e565b81810360208301526119ff81886116b2565b9050611a0e604083018761182e565b611a1b60608301866114c0565b611a286080830185611600565b81810360a0830152611a3a81846116b2565b9050979650505050505050565b6000604082019050611a5c600083018561182e565b611a69602083018461182e565b9392505050565b6000604051905081810181811067ffffffffffffffff82111715611a9357600080fd5b8060405250919050565b600067ffffffffffffffff821115611ab457600080fd5b601f19601f8301169050602081019050919050565b6000819050602082019050919050565b6000819050602082019050919050565b6000819050602082019050919050565b60008190508160005260206000209050919050565b600081519050919050565b600081519050919050565b600081519050919050565b600081519050919050565b600081519050919050565b6000602082019050919050565b6000602082019050919050565b6000602082019050919050565b600082825260208201905092915050565b600082825260208201905092915050565b600082825260208201905092915050565b600082825260208201905092915050565b600082825260208201905092915050565b600081905092915050565b6000611bd782611bfc565b9050919050565b6000611be982611bfc565b9050919050565b60008115159050919050565b600073ffffffffffffffffffffffffffffffffffffffff82169050919050565b6000819050919050565b82818337600083830152505050565b60005b83811015611c53578082015181840152602081019050611c38565b83811115611c62576000848401525b50505050565b6000601f19601f8301169050919050565b611c8281611bcc565b8114611c8d57600080fd5b50565b611c9981611c1c565b8114611ca457600080fd5b5056fea365627a7a72315820d4ca28ba2b214d9d707fd68b3251a95410a5a726c3c13dacdfeb08512b36e6176c6578706572696d656e74616cf564736f6c63430005100040",
  "source": "pragma solidity ^0.5.0;\npragma experimental ABIEncoderV2;\n\ncontract Marketplace {\n    string public name;\n    uint public productCount = 0;\n    mapping(uint => Product) public products;\n    address payable[] public marketplaceOwners;\n    \n    // Mapping to track items owned by each address\n    mapping(address => uint[]) public ownedItems;\n    \n    // Define available categories\n    string[] public categories = [\"Electronics\", \"Clothing\", \"Books\", \"Home\", \"Other\"];\n    \n    struct Product {\n        uint id;\n        string name;\n        uint price;\n        address payable owner;\n        bool purchased;\n        string category;\n    }\n\n    event ProductCreated(\n        uint id,\n        string name,\n        uint price,\n        address payable owner,\n        bool purchased,\n        string category\n    );\n\n    event ProductPurchased(\n        uint id,\n        string name,\n        uint price,\n        address payable owner,\n        bool purchased,\n        string category\n    );\n\n    event DonationReceived(\n        address indexed donor,\n        uint amount,\n        uint timestamp\n    );\n\n    constructor() public {\n        name = \"Dapp University Marketplace\";\n        // Add marketplace owners\n        marketplaceOwners.push(address(0x123)); // Replace with Spencer's address\n        marketplaceOwners.push(address(0x456)); // Replace with Zian's address\n    }\n\n    function donate() public payable {\n        require(msg.value > 0, \"Donation amount must be greater than 0\");\n        \n        // Split the donation equally between owners\n        uint shareAmount = msg.value / marketplaceOwners.length;\n        for(uint i = 0; i < marketplaceOwners.length; i++) {\n            marketplaceOwners[i].transfer(shareAmount);\n        }\n        \n        // Emit donation event\n        emit DonationReceived(msg.sender, msg.value, now);\n    }\n\n    // Helper function to validate category\n    function isValidCategory(string memory _category) internal view returns (bool) {\n        for (uint i = 0; i < categories.length; i++) {\n            if (keccak256(abi.encodePacked(categories[i])) == keccak256(abi.encodePacked(_category))) {\n                return true;\n            }\n        }\n        return false;\n    }\n\n    function createProduct(string memory _name, uint _price, string memory _category) public {\n        // Require a valid name\n        require(bytes(_name).length > 0);\n        // Require a valid price\n        require(_price > 0);\n        // Require a valid category\n        require(isValidCategory(_category), \"Invalid category\");\n        // Increment product count\n        productCount ++;\n        // Create the product\n        products[productCount] = Product(productCount, _name, _price, msg.sender, false, _category);\n        // Add to owner's items\n        ownedItems[msg.sender].push(productCount);\n        // Trigger an event\n        emit ProductCreated(productCount, _name, _price, msg.sender, false, _category);\n    }\n\n    function purchaseProduct(uint _id) public payable {\n        // Fetch the product\n        Product memory _product = products[_id];\n        // Fetch the owner\n        address payable _seller = _product.owner;\n        // Make sure the product has a valid id\n        require(_product.id > 0 && _product.id <= productCount);\n        // Require that there is enough Ether in the transaction\n        require(msg.value >= _product.price);\n        // Require that the product has not been purchased already\n        require(!_product.purchased);\n        // Require that the buyer is not the seller\n        require(_seller != msg.sender);\n        // Transfer ownership to the buyer\n        _product.owner = msg.sender;\n        // Mark as purchased\n        _product.purchased = true;\n        // Update the product\n        products[_id] = _product;\n        // Pay the seller by sending them Ether\n        address(_seller).transfer(msg.value);\n        // Remove from seller's items and add to buyer's items\n        _removeFromOwnedItems(_seller, _id);\n        ownedItems[msg.sender].push(_id);\n        // Trigger an event\n        emit ProductPurchased(productCount, _product.name, _product.price, msg.sender, true, _product.category);\n    }\n\n    // Helper function to remove an item from ownedItems\n    function _removeFromOwnedItems(address _owner, uint _id) internal {\n        uint[] storage items = ownedItems[_owner];\n        for (uint i = 0; i < items.length; i++) {\n            if (items[i] == _id) {\n                items[i] = items[items.length - 1];\n                items.pop();\n                break;\n            }\n        }\n    }\n\n    // Function to get items owned by an address\n    function getOwnedItems(address _owner) public view returns (uint[] memory) {\n        return ownedItems[_owner];\n    }\n\n    // Helper function to get all categories\n    function getCategories() public view returns (string[] memory) {\n        return categories;\n    }\n\n    // Helper function to get marketplace owners\n    function getMarketplaceOwners() public view returns (address payable[] memory) {\n        return marketplaceOwners;\n    }\n}\n",
  "sourcePath": "/Users/zianzhou/Desktop/marketplace/src/contracts/Marketplace.sol",
  "compiler": {
    "name": "solc",
    "version": "0.5.16+commit.9c3226ce.Emscripten.clang"
  },
  "schemaVersion": "3.4.16",
  "updatedAt": "2025-04-20T15:27:04.083Z",
  "networkType": "ethereum",
  "devdoc": {
    "methods": {}
  },
  "userdoc": {
    "methods": {}
  }
}