{
  "contractName": "Marketplace",
  "abi": [
    {
      "inputs": [],
      "payable": false,
      "stateMutability": "nonpayable",
      "type": "constructor"
    },
    {
      "anonymous": false,
      "inputs": [
        {
          "indexed": true,
          "internalType": "address",
          "name": "donor",
          "type": "address"
        },
        {
          "indexed": false,
          "internalType": "uint256",
          "name": "amount",
          "type": "uint256"
        },
        {
          "indexed": false,
          "internalType": "uint256",
          "name": "timestamp",
          "type": "uint256"
        }
      ],
      "name": "DonationReceived",
      "type": "event"
    },
    {
      "anonymous": false,
      "inputs": [
        {
          "indexed": false,
          "internalType": "uint256",
          "name": "id",
          "type": "uint256"
        },
        {
          "indexed": false,
          "internalType": "string",
          "name": "name",
          "type": "string"
        },
        {
          "indexed": false,
          "internalType": "uint256",
          "name": "price",
          "type": "uint256"
        },
        {
          "indexed": false,
          "internalType": "address payable",
          "name": "owner",
          "type": "address"
        },
        {
          "indexed": false,
          "internalType": "bool",
          "name": "purchased",
          "type": "bool"
        },
        {
          "indexed": false,
          "internalType": "string",
          "name": "category",
          "type": "string"
        }
      ],
      "name": "ProductCreated",
      "type": "event"
    },
    {
      "anonymous": false,
      "inputs": [
        {
          "indexed": false,
          "internalType": "uint256",
          "name": "id",
          "type": "uint256"
        },
        {
          "indexed": false,
          "internalType": "string",
          "name": "name",
          "type": "string"
        },
        {
          "indexed": false,
          "internalType": "uint256",
          "name": "price",
          "type": "uint256"
        },
        {
          "indexed": false,
          "internalType": "address payable",
          "name": "owner",
          "type": "address"
        },
        {
          "indexed": false,
          "internalType": "bool",
          "name": "purchased",
          "type": "bool"
        },
        {
          "indexed": false,
          "internalType": "string",
          "name": "category",
          "type": "string"
        }
      ],
      "name": "ProductPurchased",
      "type": "event"
    },
    {
      "constant": true,
      "inputs": [
        {
          "internalType": "uint256",
          "name": "",
          "type": "uint256"
        }
      ],
      "name": "categories",
      "outputs": [
        {
          "internalType": "string",
          "name": "",
          "type": "string"
        }
      ],
      "payable": false,
      "stateMutability": "view",
      "type": "function"
    },
    {
      "constant": true,
      "inputs": [
        {
          "internalType": "uint256",
          "name": "",
          "type": "uint256"
        }
      ],
      "name": "marketplaceOwners",
      "outputs": [
        {
          "internalType": "address payable",
          "name": "",
          "type": "address"
        }
      ],
      "payable": false,
      "stateMutability": "view",
      "type": "function"
    },
    {
      "constant": true,
      "inputs": [],
      "name": "name",
      "outputs": [
        {
          "internalType": "string",
          "name": "",
          "type": "string"
        }
      ],
      "payable": false,
      "stateMutability": "view",
      "type": "function"
    },
    {
      "constant": true,
      "inputs": [],
      "name": "productCount",
      "outputs": [
        {
          "internalType": "uint256",
          "name": "",
          "type": "uint256"
        }
      ],
      "payable": false,
      "stateMutability": "view",
      "type": "function"
    },
    {
      "constant": true,
      "inputs": [
        {
          "internalType": "uint256",
          "name": "",
          "type": "uint256"
        }
      ],
      "name": "products",
      "outputs": [
        {
          "internalType": "uint256",
          "name": "id",
          "type": "uint256"
        },
        {
          "internalType": "string",
          "name": "name",
          "type": "string"
        },
        {
          "internalType": "uint256",
          "name": "price",
          "type": "uint256"
        },
        {
          "internalType": "address payable",
          "name": "owner",
          "type": "address"
        },
        {
          "internalType": "bool",
          "name": "purchased",
          "type": "bool"
        },
        {
          "internalType": "string",
          "name": "category",
          "type": "string"
        }
      ],
      "payable": false,
      "stateMutability": "view",
      "type": "function"
    },
    {
      "constant": false,
      "inputs": [],
      "name": "donate",
      "outputs": [],
      "payable": true,
      "stateMutability": "payable",
      "type": "function"
    },
    {
      "constant": false,
      "inputs": [
        {
          "internalType": "string",
          "name": "_name",
          "type": "string"
        },
        {
          "internalType": "uint256",
          "name": "_price",
          "type": "uint256"
        },
        {
          "internalType": "string",
          "name": "_category",
          "type": "string"
        }
      ],
      "name": "createProduct",
      "outputs": [],
      "payable": false,
      "stateMutability": "nonpayable",
      "type": "function"
    },
    {
      "constant": false,
      "inputs": [
        {
          "internalType": "uint256",
          "name": "_id",
          "type": "uint256"
        }
      ],
      "name": "purchaseProduct",
      "outputs": [],
      "payable": true,
      "stateMutability": "payable",
      "type": "function"
    },
    {
      "constant": true,
      "inputs": [],
      "name": "getCategories",
      "outputs": [
        {
          "internalType": "string[]",
          "name": "",
          "type": "string[]"
        }
      ],
      "payable": false,
      "stateMutability": "view",
      "type": "function"
    },
    {
      "constant": true,
      "inputs": [],
      "name": "getMarketplaceOwners",
      "outputs": [
        {
          "internalType": "address payable[]",
          "name": "",
          "type": "address[]"
        }
      ],
      "payable": false,
      "stateMutability": "view",
      "type": "function"
    }
  ],
  "bytecode": "0x608060405260006001556040518060a001604052806040518060400160405280600b81526020017f456c656374726f6e69637300000000000000000000000000000000000000000081525081526020016040518060400160405280600881526020017f436c6f7468696e6700000000000000000000000000000000000000000000000081525081526020016040518060400160405280600581526020017f426f6f6b7300000000000000000000000000000000000000000000000000000081525081526020016040518060400160405280600481526020017f486f6d650000000000000000000000000000000000000000000000000000000081525081526020016040518060400160405280600581526020017f4f7468657200000000000000000000000000000000000000000000000000000081525081525060049060056200014b9291906200027e565b503480156200015957600080fd5b506040518060400160405280601b81526020017f4461707020556e6976657273697479204d61726b6574706c616365000000000081525060009080519060200190620001a7929190620002e5565b50600361012390806001815401808255809150509060018203906000526020600020016000909192909190916101000a81548173ffffffffffffffffffffffffffffffffffffffff021916908373ffffffffffffffffffffffffffffffffffffffff16021790555050600361045690806001815401808255809150509060018203906000526020600020016000909192909190916101000a81548173ffffffffffffffffffffffffffffffffffffffff021916908373ffffffffffffffffffffffffffffffffffffffff1602179055505062000498565b828054828255906000526020600020908101928215620002d2579160200282015b82811115620002d1578251829080519060200190620002c09291906200036c565b50916020019190600101906200029f565b5b509050620002e19190620003f3565b5090565b828054600181600116156101000203166002900490600052602060002090601f016020900481019282601f106200032857805160ff191683800117855562000359565b8280016001018555821562000359579182015b82811115620003585782518255916020019190600101906200033b565b5b50905062000368919062000424565b5090565b828054600181600116156101000203166002900490600052602060002090601f016020900481019282601f10620003af57805160ff1916838001178555620003e0565b82800160010185558215620003e0579182015b82811115620003df578251825591602001919060010190620003c2565b5b509050620003ef919062000424565b5090565b6200042191905b808211156200041d57600081816200041391906200044c565b50600101620003fa565b5090565b90565b6200044991905b80821115620004455760008160009055506001016200042b565b5090565b90565b50805460018160011615610100020316600290046000825580601f1062000474575062000495565b601f01602090049060005260206000209081019062000494919062000424565b5b50565b61185180620004a86000396000f3fe6080604052600436106100915760003560e01c80637acc0b20116100595780637acc0b2014610170578063c6cdbe5e146101b2578063e0f6ef87146101ef578063ed88c68e1461021a578063ff38ec0f1461022457610091565b806306fdde03146100965780632c6b3b6f146100c157806338e76a03146100fe5780633d13cb931461011a5780634db0412c14610145575b600080fd5b3480156100a257600080fd5b506100ab61024d565b6040516100b891906114b5565b60405180910390f35b3480156100cd57600080fd5b506100e860048036036100e391908101906110b4565b6102eb565b6040516100f59190611456565b60405180910390f35b610118600480360361011391908101906110b4565b610327565b005b34801561012657600080fd5b5061012f61074e565b60405161013c9190611471565b60405180910390f35b34801561015157600080fd5b5061015a6107dc565b6040516101679190611493565b60405180910390f35b34801561017c57600080fd5b50610197600480360361019291908101906110b4565b6108c5565b6040516101a9969594939291906115a1565b60405180910390f35b3480156101be57600080fd5b506101d960048036036101d491908101906110b4565b610a5e565b6040516101e691906114b5565b60405180910390f35b3480156101fb57600080fd5b50610204610b17565b6040516102119190611517565b60405180910390f35b610222610b1d565b005b34801561023057600080fd5b5061024b60048036036102469190810190611035565b610c65565b005b60008054600181600116156101000203166002900480601f0160208091040260200160405190810160405280929190818152602001828054600181600116156101000203166002900480156102e35780601f106102b8576101008083540402835291602001916102e3565b820191906000526020600020905b8154815290600101906020018083116102c657829003601f168201915b505050505081565b600381815481106102f857fe5b906000526020600020016000915054906101000a900473ffffffffffffffffffffffffffffffffffffffff1681565b61032f610ed9565b600260008381526020019081526020016000206040518060c001604052908160008201548152602001600182018054600181600116156101000203166002900480601f0160208091040260200160405190810160405280929190818152602001828054600181600116156101000203166002900480156103f05780601f106103c5576101008083540402835291602001916103f0565b820191906000526020600020905b8154815290600101906020018083116103d357829003601f168201915b50505050508152602001600282015481526020016003820160009054906101000a900473ffffffffffffffffffffffffffffffffffffffff1673ffffffffffffffffffffffffffffffffffffffff1673ffffffffffffffffffffffffffffffffffffffff1681526020016003820160149054906101000a900460ff16151515158152602001600482018054600181600116156101000203166002900480601f01602080910402602001604051908101604052809291908181526020018280546001816001161561010002031660029004801561050d5780601f106104e25761010080835404028352916020019161050d565b820191906000526020600020905b8154815290600101906020018083116104f057829003601f168201915b50505050508152505090506000816060015190506000826000015111801561053b5750600154826000015111155b61054457600080fd5b816040015134101561055557600080fd5b81608001511561056457600080fd5b3373ffffffffffffffffffffffffffffffffffffffff168173ffffffffffffffffffffffffffffffffffffffff16141561059d57600080fd5b33826060019073ffffffffffffffffffffffffffffffffffffffff16908173ffffffffffffffffffffffffffffffffffffffff168152505060018260800190151590811515815250508160026000858152602001908152602001600020600082015181600001556020820151816001019080519060200190610620929190610f27565b506040820151816002015560608201518160030160006101000a81548173ffffffffffffffffffffffffffffffffffffffff021916908373ffffffffffffffffffffffffffffffffffffffff16021790555060808201518160030160146101000a81548160ff02191690831515021790555060a08201518160040190805190602001906106ae929190610f27565b509050508073ffffffffffffffffffffffffffffffffffffffff166108fc349081150290604051600060405180830381858888f193505050501580156106f8573d6000803e3d6000fd5b507fbfea77e753545970df550ee3f70d23900e5bb71686c8a8c973143a8788e261ff600154836020015184604001513360018760a00151604051610741969594939291906115a1565b60405180910390a1505050565b606060038054806020026020016040519081016040528092919081815260200182805480156107d257602002820191906000526020600020905b8160009054906101000a900473ffffffffffffffffffffffffffffffffffffffff1673ffffffffffffffffffffffffffffffffffffffff1681526020019060010190808311610788575b5050505050905090565b60606004805480602002602001604051908101604052809291908181526020016000905b828210156108bc578382906000526020600020018054600181600116156101000203166002900480601f0160208091040260200160405190810160405280929190818152602001828054600181600116156101000203166002900480156108a85780601f1061087d576101008083540402835291602001916108a8565b820191906000526020600020905b81548152906001019060200180831161088b57829003601f168201915b505050505081526020019060010190610800565b50505050905090565b6002602052806000526040600020600091509050806000015490806001018054600181600116156101000203166002900480601f0160208091040260200160405190810160405280929190818152602001828054600181600116156101000203166002900480156109775780601f1061094c57610100808354040283529160200191610977565b820191906000526020600020905b81548152906001019060200180831161095a57829003601f168201915b5050505050908060020154908060030160009054906101000a900473ffffffffffffffffffffffffffffffffffffffff16908060030160149054906101000a900460ff1690806004018054600181600116156101000203166002900480601f016020809104026020016040519081016040528092919081815260200182805460018160011615610100020316600290048015610a545780601f10610a2957610100808354040283529160200191610a54565b820191906000526020600020905b815481529060010190602001808311610a3757829003601f168201915b5050505050905086565b60048181548110610a6b57fe5b906000526020600020016000915090508054600181600116156101000203166002900480601f016020809104026020016040519081016040528092919081815260200182805460018160011615610100020316600290048015610b0f5780601f10610ae457610100808354040283529160200191610b0f565b820191906000526020600020905b815481529060010190602001808311610af257829003601f168201915b505050505081565b60015481565b60003411610b60576040517f08c379a0000000000000000000000000000000000000000000000000000000008152600401610b57906114d7565b60405180910390fd5b60006003805490503481610b7057fe5b04905060008090505b600380549050811015610c115760038181548110610b9357fe5b9060005260206000200160009054906101000a900473ffffffffffffffffffffffffffffffffffffffff1673ffffffffffffffffffffffffffffffffffffffff166108fc839081150290604051600060405180830381858888f19350505050158015610c03573d6000803e3d6000fd5b508080600101915050610b79565b503373ffffffffffffffffffffffffffffffffffffffff167f4b0304ab2f313234b1cea012339c8f8c3bf2c8bb357d81a579cfdb35d2e3d0303442604051610c5a929190611610565b60405180910390a250565b6000835111610c7357600080fd5b60008211610c8057600080fd5b610c8981610e38565b610cc8576040517f08c379a0000000000000000000000000000000000000000000000000000000008152600401610cbf906114f7565b60405180910390fd5b6001600081548092919060010191905055506040518060c0016040528060015481526020018481526020018381526020013373ffffffffffffffffffffffffffffffffffffffff16815260200160001515815260200182815250600260006001548152602001908152602001600020600082015181600001556020820151816001019080519060200190610d5d929190610f27565b506040820151816002015560608201518160030160006101000a81548173ffffffffffffffffffffffffffffffffffffffff021916908373ffffffffffffffffffffffffffffffffffffffff16021790555060808201518160030160146101000a81548160ff02191690831515021790555060a0820151816004019080519060200190610deb929190610f27565b509050507fd87ce4bfd22bad4a8ed8acd04d5670a4166b81f64fe53488db885e1987f33d82600154848433600086604051610e2b96959493929190611532565b60405180910390a1505050565b600080600090505b600480549050811015610ece5782604051602001610e5e9190611428565b6040516020818303038152906040528051906020012060048281548110610e8157fe5b90600052602060002001604051602001610e9b919061143f565b604051602081830303815290604052805190602001201415610ec1576001915050610ed4565b8080600101915050610e40565b50600090505b919050565b6040518060c00160405280600081526020016060815260200160008152602001600073ffffffffffffffffffffffffffffffffffffffff168152602001600015158152602001606081525090565b828054600181600116156101000203166002900490600052602060002090601f016020900481019282601f10610f6857805160ff1916838001178555610f96565b82800160010185558215610f96579182015b82811115610f95578251825591602001919060010190610f7a565b5b509050610fa39190610fa7565b5090565b610fc991905b80821115610fc5576000816000905550600101610fad565b5090565b90565b600082601f830112610fdd57600080fd5b8135610ff0610feb82611666565b611639565b9150808252602083016020830185838301111561100c57600080fd5b6110178382846117a4565b50505092915050565b60008135905061102f816117f7565b92915050565b60008060006060848603121561104a57600080fd5b600084013567ffffffffffffffff81111561106457600080fd5b61107086828701610fcc565b935050602061108186828701611020565b925050604084013567ffffffffffffffff81111561109e57600080fd5b6110aa86828701610fcc565b9150509250925092565b6000602082840312156110c657600080fd5b60006110d484828501611020565b91505092915050565b60006110e98383611109565b60208301905092915050565b60006111018383611273565b905092915050565b6111128161175c565b82525050565b6111218161175c565b82525050565b6000611132826116c7565b61113c818561170d565b935061114783611692565b8060005b8381101561117857815161115f88826110dd565b975061116a836116f3565b92505060018101905061114b565b5085935050505092915050565b6000611190826116d2565b61119a818561171e565b9350836020820285016111ac856116a2565b8060005b858110156111e857848403895281516111c985826110f5565b94506111d483611700565b925060208a019950506001810190506111b0565b50829750879550505050505092915050565b6112038161176e565b82525050565b6000611214826116e8565b61121e8185611740565b935061122e8185602086016117b3565b611237816117e6565b840191505092915050565b600061124d826116e8565b6112578185611751565b93506112678185602086016117b3565b80840191505092915050565b600061127e826116dd565b611288818561172f565b93506112988185602086016117b3565b6112a1816117e6565b840191505092915050565b60006112b7826116dd565b6112c18185611740565b93506112d18185602086016117b3565b6112da816117e6565b840191505092915050565b60008154600181166000811461130257600181146113275761136b565b607f60028304166113138187611751565b955060ff198316865280860193505061136b565b600282046113358187611751565b9550611340856116b2565b60005b8281101561136257815481890152600182019150602081019050611343565b82880195505050505b505092915050565b6000611380602683611740565b91507f446f6e6174696f6e20616d6f756e74206d75737420626520677265617465722060008301527f7468616e203000000000000000000000000000000000000000000000000000006020830152604082019050919050565b60006113e6601083611740565b91507f496e76616c69642063617465676f7279000000000000000000000000000000006000830152602082019050919050565b6114228161179a565b82525050565b60006114348284611242565b915081905092915050565b600061144b82846112e5565b915081905092915050565b600060208201905061146b6000830184611118565b92915050565b6000602082019050818103600083015261148b8184611127565b905092915050565b600060208201905081810360008301526114ad8184611185565b905092915050565b600060208201905081810360008301526114cf81846112ac565b905092915050565b600060208201905081810360008301526114f081611373565b9050919050565b60006020820190508181036000830152611510816113d9565b9050919050565b600060208201905061152c6000830184611419565b92915050565b600060c0820190506115476000830189611419565b81810360208301526115598188611209565b90506115686040830187611419565b6115756060830186611118565b61158260808301856111fa565b81810360a08301526115948184611209565b9050979650505050505050565b600060c0820190506115b66000830189611419565b81810360208301526115c881886112ac565b90506115d76040830187611419565b6115e46060830186611118565b6115f160808301856111fa565b81810360a083015261160381846112ac565b9050979650505050505050565b60006040820190506116256000830185611419565b6116326020830184611419565b9392505050565b6000604051905081810181811067ffffffffffffffff8211171561165c57600080fd5b8060405250919050565b600067ffffffffffffffff82111561167d57600080fd5b601f19601f8301169050602081019050919050565b6000819050602082019050919050565b6000819050602082019050919050565b60008190508160005260206000209050919050565b600081519050919050565b600081519050919050565b600081519050919050565b600081519050919050565b6000602082019050919050565b6000602082019050919050565b600082825260208201905092915050565b600082825260208201905092915050565b600082825260208201905092915050565b600082825260208201905092915050565b600081905092915050565b60006117678261177a565b9050919050565b60008115159050919050565b600073ffffffffffffffffffffffffffffffffffffffff82169050919050565b6000819050919050565b82818337600083830152505050565b60005b838110156117d15780820151818401526020810190506117b6565b838111156117e0576000848401525b50505050565b6000601f19601f8301169050919050565b6118008161179a565b811461180b57600080fd5b5056fea365627a7a72315820261e9ed8c360d3bb332c040797210166783d560bf53e55b8ffd8b284716d713b6c6578706572696d656e74616cf564736f6c63430005100040",
  "source": "pragma solidity ^0.5.0;\npragma experimental ABIEncoderV2;\n\ncontract Marketplace {\n    string public name;\n    uint public productCount = 0;\n    mapping(uint => Product) public products;\n    address payable[] public marketplaceOwners;\n    \n    // Define available categories\n    string[] public categories = [\"Electronics\", \"Clothing\", \"Books\", \"Home\", \"Other\"];\n    \n    struct Product {\n        uint id;\n        string name;\n        uint price;\n        address payable owner;\n        bool purchased;\n        string category;\n    }\n\n    event ProductCreated(\n        uint id,\n        string name,\n        uint price,\n        address payable owner,\n        bool purchased,\n        string category\n    );\n\n    event ProductPurchased(\n        uint id,\n        string name,\n        uint price,\n        address payable owner,\n        bool purchased,\n        string category\n    );\n\n    event DonationReceived(\n        address indexed donor,\n        uint amount,\n        uint timestamp\n    );\n\n    constructor() public {\n        name = \"Dapp University Marketplace\";\n        // Add marketplace owners\n        marketplaceOwners.push(address(0x123)); // Replace with Spencer's address\n        marketplaceOwners.push(address(0x456)); // Replace with Zian's address\n    }\n\n    function donate() public payable {\n        require(msg.value > 0, \"Donation amount must be greater than 0\");\n        \n        // Split the donation equally between owners\n        uint shareAmount = msg.value / marketplaceOwners.length;\n        for(uint i = 0; i < marketplaceOwners.length; i++) {\n            marketplaceOwners[i].transfer(shareAmount);\n        }\n        \n        // Emit donation event\n        emit DonationReceived(msg.sender, msg.value, now);\n    }\n\n    // Helper function to validate category\n    function isValidCategory(string memory _category) internal view returns (bool) {\n        for (uint i = 0; i < categories.length; i++) {\n            if (keccak256(abi.encodePacked(categories[i])) == keccak256(abi.encodePacked(_category))) {\n                return true;\n            }\n        }\n        return false;\n    }\n\n    function createProduct(string memory _name, uint _price, string memory _category) public {\n        // Require a valid name\n        require(bytes(_name).length > 0);\n        // Require a valid price\n        require(_price > 0);\n        // Require a valid category\n        require(isValidCategory(_category), \"Invalid category\");\n        // Increment product count\n        productCount ++;\n        // Create the product\n        products[productCount] = Product(productCount, _name, _price, msg.sender, false, _category);\n        // Trigger an event\n        emit ProductCreated(productCount, _name, _price, msg.sender, false, _category);\n    }\n\n    function purchaseProduct(uint _id) public payable {\n        // Fetch the product\n        Product memory _product = products[_id];\n        // Fetch the owner\n        address payable _seller = _product.owner;\n        // Make sure the product has a valid id\n        require(_product.id > 0 && _product.id <= productCount);\n        // Require that there is enough Ether in the transaction\n        require(msg.value >= _product.price);\n        // Require that the product has not been purchased already\n        require(!_product.purchased);\n        // Require that the buyer is not the seller\n        require(_seller != msg.sender);\n        // Transfer ownership to the buyer\n        _product.owner = msg.sender;\n        // Mark as purchased\n        _product.purchased = true;\n        // Update the product\n        products[_id] = _product;\n        // Pay the seller by sending them Ether\n        address(_seller).transfer(msg.value);\n        // Trigger an event\n        emit ProductPurchased(productCount, _product.name, _product.price, msg.sender, true, _product.category);\n    }\n\n    // Helper function to get all categories\n    function getCategories() public view returns (string[] memory) {\n        return categories;\n    }\n\n    // Helper function to get marketplace owners\n    function getMarketplaceOwners() public view returns (address payable[] memory) {\n        return marketplaceOwners;\n    }\n}\n",
  "sourcePath": "/Users/zianzhou/Desktop/marketplace/src/contracts/Marketplace.sol",
  "compiler": {
    "name": "solc",
    "version": "0.5.16+commit.9c3226ce.Emscripten.clang"
  },
  "schemaVersion": "3.4.16",
  "updatedAt": "2025-04-19T22:17:55.847Z",
  "networkType": "ethereum",
  "devdoc": {
    "methods": {}
  },
  "userdoc": {
    "methods": {}
  }
}