{
  "contractName": "Marketplace",
  "abi": [
    {
      "inputs": [],
      "payable": false,
      "stateMutability": "nonpayable",
      "type": "constructor"
    },
    {
      "anonymous": false,
      "inputs": [
        {
          "indexed": false,
          "internalType": "uint256",
          "name": "id",
          "type": "uint256"
        },
        {
          "indexed": false,
          "internalType": "string",
          "name": "name",
          "type": "string"
        },
        {
          "indexed": false,
          "internalType": "uint256",
          "name": "price",
          "type": "uint256"
        },
        {
          "indexed": false,
          "internalType": "address payable",
          "name": "owner",
          "type": "address"
        },
        {
          "indexed": false,
          "internalType": "bool",
          "name": "purchased",
          "type": "bool"
        },
        {
          "indexed": false,
          "internalType": "string",
          "name": "category",
          "type": "string"
        }
      ],
      "name": "ProductCreated",
      "type": "event"
    },
    {
      "anonymous": false,
      "inputs": [
        {
          "indexed": false,
          "internalType": "uint256",
          "name": "id",
          "type": "uint256"
        },
        {
          "indexed": false,
          "internalType": "string",
          "name": "name",
          "type": "string"
        },
        {
          "indexed": false,
          "internalType": "uint256",
          "name": "price",
          "type": "uint256"
        },
        {
          "indexed": false,
          "internalType": "address payable",
          "name": "owner",
          "type": "address"
        },
        {
          "indexed": false,
          "internalType": "bool",
          "name": "purchased",
          "type": "bool"
        },
        {
          "indexed": false,
          "internalType": "string",
          "name": "category",
          "type": "string"
        }
      ],
      "name": "ProductPurchased",
      "type": "event"
    },
    {
      "constant": true,
      "inputs": [
        {
          "internalType": "uint256",
          "name": "",
          "type": "uint256"
        }
      ],
      "name": "categories",
      "outputs": [
        {
          "internalType": "string",
          "name": "",
          "type": "string"
        }
      ],
      "payable": false,
      "stateMutability": "view",
      "type": "function"
    },
    {
      "constant": true,
      "inputs": [],
      "name": "name",
      "outputs": [
        {
          "internalType": "string",
          "name": "",
          "type": "string"
        }
      ],
      "payable": false,
      "stateMutability": "view",
      "type": "function"
    },
    {
      "constant": true,
      "inputs": [],
      "name": "productCount",
      "outputs": [
        {
          "internalType": "uint256",
          "name": "",
          "type": "uint256"
        }
      ],
      "payable": false,
      "stateMutability": "view",
      "type": "function"
    },
    {
      "constant": true,
      "inputs": [
        {
          "internalType": "uint256",
          "name": "",
          "type": "uint256"
        }
      ],
      "name": "products",
      "outputs": [
        {
          "internalType": "uint256",
          "name": "id",
          "type": "uint256"
        },
        {
          "internalType": "string",
          "name": "name",
          "type": "string"
        },
        {
          "internalType": "uint256",
          "name": "price",
          "type": "uint256"
        },
        {
          "internalType": "address payable",
          "name": "owner",
          "type": "address"
        },
        {
          "internalType": "bool",
          "name": "purchased",
          "type": "bool"
        },
        {
          "internalType": "string",
          "name": "category",
          "type": "string"
        }
      ],
      "payable": false,
      "stateMutability": "view",
      "type": "function"
    },
    {
      "constant": false,
      "inputs": [
        {
          "internalType": "string",
          "name": "_name",
          "type": "string"
        },
        {
          "internalType": "uint256",
          "name": "_price",
          "type": "uint256"
        },
        {
          "internalType": "string",
          "name": "_category",
          "type": "string"
        }
      ],
      "name": "createProduct",
      "outputs": [],
      "payable": false,
      "stateMutability": "nonpayable",
      "type": "function"
    },
    {
      "constant": false,
      "inputs": [
        {
          "internalType": "uint256",
          "name": "_id",
          "type": "uint256"
        }
      ],
      "name": "purchaseProduct",
      "outputs": [],
      "payable": true,
      "stateMutability": "payable",
      "type": "function"
    },
    {
      "constant": true,
      "inputs": [],
      "name": "getCategories",
      "outputs": [
        {
          "internalType": "string[]",
          "name": "",
          "type": "string[]"
        }
      ],
      "payable": false,
      "stateMutability": "view",
      "type": "function"
    }
  ],
  "bytecode": "0x608060405260006001556040518060a001604052806040518060400160405280600b81526020017f456c656374726f6e69637300000000000000000000000000000000000000000081525081526020016040518060400160405280600881526020017f436c6f7468696e6700000000000000000000000000000000000000000000000081525081526020016040518060400160405280600581526020017f426f6f6b7300000000000000000000000000000000000000000000000000000081525081526020016040518060400160405280600481526020017f486f6d650000000000000000000000000000000000000000000000000000000081525081526020016040518060400160405280600581526020017f4f7468657200000000000000000000000000000000000000000000000000000081525081525060039060056200014b929190620001ae565b503480156200015957600080fd5b506040518060400160405280601b81526020017f4461707020556e6976657273697479204d61726b6574706c616365000000000081525060009080519060200190620001a792919062000215565b50620003c8565b82805482825590600052602060002090810192821562000202579160200282015b8281111562000201578251829080519060200190620001f09291906200029c565b5091602001919060010190620001cf565b5b50905062000211919062000323565b5090565b828054600181600116156101000203166002900490600052602060002090601f016020900481019282601f106200025857805160ff191683800117855562000289565b8280016001018555821562000289579182015b82811115620002885782518255916020019190600101906200026b565b5b50905062000298919062000354565b5090565b828054600181600116156101000203166002900490600052602060002090601f016020900481019282601f10620002df57805160ff191683800117855562000310565b8280016001018555821562000310579182015b828111156200030f578251825591602001919060010190620002f2565b5b5090506200031f919062000354565b5090565b6200035191905b808211156200034d57600081816200034391906200037c565b506001016200032a565b5090565b90565b6200037991905b80821115620003755760008160009055506001016200035b565b5090565b90565b50805460018160011615610100020316600290046000825580601f10620003a45750620003c5565b601f016020900490600052602060002090810190620003c4919062000354565b5b50565b61140280620003d86000396000f3fe6080604052600436106100705760003560e01c80637acc0b201161004e5780637acc0b20146100e7578063c6cdbe5e14610129578063e0f6ef8714610166578063ff38ec0f1461019157610070565b806306fdde031461007557806338e76a03146100a05780634db0412c146100bc575b600080fd5b34801561008157600080fd5b5061008a6101ba565b60405161009791906110e8565b60405180910390f35b6100ba60048036036100b59190810190610e0f565b610258565b005b3480156100c857600080fd5b506100d161067f565b6040516100de91906110c6565b60405180910390f35b3480156100f357600080fd5b5061010e60048036036101099190810190610e0f565b610768565b604051610120969594939291906111b4565b60405180910390f35b34801561013557600080fd5b50610150600480360361014b9190810190610e0f565b610901565b60405161015d91906110e8565b60405180910390f35b34801561017257600080fd5b5061017b6109ba565b604051610188919061112a565b60405180910390f35b34801561019d57600080fd5b506101b860048036036101b39190810190610d90565b6109c0565b005b60008054600181600116156101000203166002900480601f0160208091040260200160405190810160405280929190818152602001828054600181600116156101000203166002900480156102505780601f1061022557610100808354040283529160200191610250565b820191906000526020600020905b81548152906001019060200180831161023357829003601f168201915b505050505081565b610260610c34565b600260008381526020019081526020016000206040518060c001604052908160008201548152602001600182018054600181600116156101000203166002900480601f0160208091040260200160405190810160405280929190818152602001828054600181600116156101000203166002900480156103215780601f106102f657610100808354040283529160200191610321565b820191906000526020600020905b81548152906001019060200180831161030457829003601f168201915b50505050508152602001600282015481526020016003820160009054906101000a900473ffffffffffffffffffffffffffffffffffffffff1673ffffffffffffffffffffffffffffffffffffffff1673ffffffffffffffffffffffffffffffffffffffff1681526020016003820160149054906101000a900460ff16151515158152602001600482018054600181600116156101000203166002900480601f01602080910402602001604051908101604052809291908181526020018280546001816001161561010002031660029004801561043e5780601f106104135761010080835404028352916020019161043e565b820191906000526020600020905b81548152906001019060200180831161042157829003601f168201915b50505050508152505090506000816060015190506000826000015111801561046c5750600154826000015111155b61047557600080fd5b816040015134101561048657600080fd5b81608001511561049557600080fd5b3373ffffffffffffffffffffffffffffffffffffffff168173ffffffffffffffffffffffffffffffffffffffff1614156104ce57600080fd5b33826060019073ffffffffffffffffffffffffffffffffffffffff16908173ffffffffffffffffffffffffffffffffffffffff168152505060018260800190151590811515815250508160026000858152602001908152602001600020600082015181600001556020820151816001019080519060200190610551929190610c82565b506040820151816002015560608201518160030160006101000a81548173ffffffffffffffffffffffffffffffffffffffff021916908373ffffffffffffffffffffffffffffffffffffffff16021790555060808201518160030160146101000a81548160ff02191690831515021790555060a08201518160040190805190602001906105df929190610c82565b509050508073ffffffffffffffffffffffffffffffffffffffff166108fc349081150290604051600060405180830381858888f19350505050158015610629573d6000803e3d6000fd5b507fbfea77e753545970df550ee3f70d23900e5bb71686c8a8c973143a8788e261ff600154836020015184604001513360018760a00151604051610672969594939291906111b4565b60405180910390a1505050565b60606003805480602002602001604051908101604052809291908181526020016000905b8282101561075f578382906000526020600020018054600181600116156101000203166002900480601f01602080910402602001604051908101604052809291908181526020018280546001816001161561010002031660029004801561074b5780601f106107205761010080835404028352916020019161074b565b820191906000526020600020905b81548152906001019060200180831161072e57829003601f168201915b5050505050815260200190600101906106a3565b50505050905090565b6002602052806000526040600020600091509050806000015490806001018054600181600116156101000203166002900480601f01602080910402602001604051908101604052809291908181526020018280546001816001161561010002031660029004801561081a5780601f106107ef5761010080835404028352916020019161081a565b820191906000526020600020905b8154815290600101906020018083116107fd57829003601f168201915b5050505050908060020154908060030160009054906101000a900473ffffffffffffffffffffffffffffffffffffffff16908060030160149054906101000a900460ff1690806004018054600181600116156101000203166002900480601f0160208091040260200160405190810160405280929190818152602001828054600181600116156101000203166002900480156108f75780601f106108cc576101008083540402835291602001916108f7565b820191906000526020600020905b8154815290600101906020018083116108da57829003601f168201915b5050505050905086565b6003818154811061090e57fe5b906000526020600020016000915090508054600181600116156101000203166002900480601f0160208091040260200160405190810160405280929190818152602001828054600181600116156101000203166002900480156109b25780601f10610987576101008083540402835291602001916109b2565b820191906000526020600020905b81548152906001019060200180831161099557829003601f168201915b505050505081565b60015481565b60008351116109ce57600080fd5b600082116109db57600080fd5b6109e481610b93565b610a23576040517f08c379a0000000000000000000000000000000000000000000000000000000008152600401610a1a9061110a565b60405180910390fd5b6001600081548092919060010191905055506040518060c0016040528060015481526020018481526020018381526020013373ffffffffffffffffffffffffffffffffffffffff16815260200160001515815260200182815250600260006001548152602001908152602001600020600082015181600001556020820151816001019080519060200190610ab8929190610c82565b506040820151816002015560608201518160030160006101000a81548173ffffffffffffffffffffffffffffffffffffffff021916908373ffffffffffffffffffffffffffffffffffffffff16021790555060808201518160030160146101000a81548160ff02191690831515021790555060a0820151816004019080519060200190610b46929190610c82565b509050507fd87ce4bfd22bad4a8ed8acd04d5670a4166b81f64fe53488db885e1987f33d82600154848433600086604051610b8696959493929190611145565b60405180910390a1505050565b600080600090505b600380549050811015610c295782604051602001610bb99190611098565b6040516020818303038152906040528051906020012060038281548110610bdc57fe5b90600052602060002001604051602001610bf691906110af565b604051602081830303815290604052805190602001201415610c1c576001915050610c2f565b8080600101915050610b9b565b50600090505b919050565b6040518060c00160405280600081526020016060815260200160008152602001600073ffffffffffffffffffffffffffffffffffffffff168152602001600015158152602001606081525090565b828054600181600116156101000203166002900490600052602060002090601f016020900481019282601f10610cc357805160ff1916838001178555610cf1565b82800160010185558215610cf1579182015b82811115610cf0578251825591602001919060010190610cd5565b5b509050610cfe9190610d02565b5090565b610d2491905b80821115610d20576000816000905550600101610d08565b5090565b90565b600082601f830112610d3857600080fd5b8135610d4b610d4682611250565b611223565b91508082526020830160208301858383011115610d6757600080fd5b610d72838284611355565b50505092915050565b600081359050610d8a816113a8565b92915050565b600080600060608486031215610da557600080fd5b600084013567ffffffffffffffff811115610dbf57600080fd5b610dcb86828701610d27565b9350506020610ddc86828701610d7b565b925050604084013567ffffffffffffffff811115610df957600080fd5b610e0586828701610d27565b9150509250925092565b600060208284031215610e2157600080fd5b6000610e2f84828501610d7b565b91505092915050565b6000610e448383610f49565b905092915050565b610e558161130d565b82525050565b6000610e66826112a1565b610e7081856112cf565b935083602082028501610e828561127c565b8060005b85811015610ebe5784840389528151610e9f8582610e38565b9450610eaa836112c2565b925060208a01995050600181019050610e86565b50829750879550505050505092915050565b610ed98161131f565b82525050565b6000610eea826112b7565b610ef481856112f1565b9350610f04818560208601611364565b610f0d81611397565b840191505092915050565b6000610f23826112b7565b610f2d8185611302565b9350610f3d818560208601611364565b80840191505092915050565b6000610f54826112ac565b610f5e81856112e0565b9350610f6e818560208601611364565b610f7781611397565b840191505092915050565b6000610f8d826112ac565b610f9781856112f1565b9350610fa7818560208601611364565b610fb081611397565b840191505092915050565b600081546001811660008114610fd85760018114610ffd57611041565b607f6002830416610fe98187611302565b955060ff1983168652808601935050611041565b6002820461100b8187611302565b95506110168561128c565b60005b8281101561103857815481890152600182019150602081019050611019565b82880195505050505b505092915050565b60006110566010836112f1565b91507f496e76616c69642063617465676f7279000000000000000000000000000000006000830152602082019050919050565b6110928161134b565b82525050565b60006110a48284610f18565b915081905092915050565b60006110bb8284610fbb565b915081905092915050565b600060208201905081810360008301526110e08184610e5b565b905092915050565b600060208201905081810360008301526111028184610f82565b905092915050565b6000602082019050818103600083015261112381611049565b9050919050565b600060208201905061113f6000830184611089565b92915050565b600060c08201905061115a6000830189611089565b818103602083015261116c8188610edf565b905061117b6040830187611089565b6111886060830186610e4c565b6111956080830185610ed0565b81810360a08301526111a78184610edf565b9050979650505050505050565b600060c0820190506111c96000830189611089565b81810360208301526111db8188610f82565b90506111ea6040830187611089565b6111f76060830186610e4c565b6112046080830185610ed0565b81810360a08301526112168184610f82565b9050979650505050505050565b6000604051905081810181811067ffffffffffffffff8211171561124657600080fd5b8060405250919050565b600067ffffffffffffffff82111561126757600080fd5b601f19601f8301169050602081019050919050565b6000819050602082019050919050565b60008190508160005260206000209050919050565b600081519050919050565b600081519050919050565b600081519050919050565b6000602082019050919050565b600082825260208201905092915050565b600082825260208201905092915050565b600082825260208201905092915050565b600081905092915050565b60006113188261132b565b9050919050565b60008115159050919050565b600073ffffffffffffffffffffffffffffffffffffffff82169050919050565b6000819050919050565b82818337600083830152505050565b60005b83811015611382578082015181840152602081019050611367565b83811115611391576000848401525b50505050565b6000601f19601f8301169050919050565b6113b18161134b565b81146113bc57600080fd5b5056fea365627a7a7231582092cf3ab25298cfcc2382dfeb08ff5168e9b860bab4766aefe0f6e7f911ca394f6c6578706572696d656e74616cf564736f6c63430005100040",
  "source": "pragma solidity ^0.5.0;\npragma experimental ABIEncoderV2;\n\ncontract Marketplace {\n    string public name;\n    uint public productCount = 0;\n    mapping(uint => Product) public products;\n    \n    // Define available categories\n    string[] public categories = [\"Electronics\", \"Clothing\", \"Books\", \"Home\", \"Other\"];\n    \n    struct Product {\n        uint id;\n        string name;\n        uint price;\n        address payable owner;\n        bool purchased;\n        string category;\n    }\n\n    event ProductCreated(\n        uint id,\n        string name,\n        uint price,\n        address payable owner,\n        bool purchased,\n        string category\n    );\n\n    event ProductPurchased(\n        uint id,\n        string name,\n        uint price,\n        address payable owner,\n        bool purchased,\n        string category\n    );\n\n    constructor() public {\n        name = \"Dapp University Marketplace\";\n    }\n\n    // Helper function to validate category\n    function isValidCategory(string memory _category) internal view returns (bool) {\n        for (uint i = 0; i < categories.length; i++) {\n            if (keccak256(abi.encodePacked(categories[i])) == keccak256(abi.encodePacked(_category))) {\n                return true;\n            }\n        }\n        return false;\n    }\n\n    function createProduct(string memory _name, uint _price, string memory _category) public {\n        // Require a valid name\n        require(bytes(_name).length > 0);\n        // Require a valid price\n        require(_price > 0);\n        // Require a valid category\n        require(isValidCategory(_category), \"Invalid category\");\n        // Increment product count\n        productCount ++;\n        // Create the product\n        products[productCount] = Product(productCount, _name, _price, msg.sender, false, _category);\n        // Trigger an event\n        emit ProductCreated(productCount, _name, _price, msg.sender, false, _category);\n    }\n\n    function purchaseProduct(uint _id) public payable {\n        // Fetch the product\n        Product memory _product = products[_id];\n        // Fetch the owner\n        address payable _seller = _product.owner;\n        // Make sure the product has a valid id\n        require(_product.id > 0 && _product.id <= productCount);\n        // Require that there is enough Ether in the transaction\n        require(msg.value >= _product.price);\n        // Require that the product has not been purchased already\n        require(!_product.purchased);\n        // Require that the buyer is not the seller\n        require(_seller != msg.sender);\n        // Transfer ownership to the buyer\n        _product.owner = msg.sender;\n        // Mark as purchased\n        _product.purchased = true;\n        // Update the product\n        products[_id] = _product;\n        // Pay the seller by sending them Ether\n        address(_seller).transfer(msg.value);\n        // Trigger an event\n        emit ProductPurchased(productCount, _product.name, _product.price, msg.sender, true, _product.category);\n    }\n\n    // Helper function to get all categories\n    function getCategories() public view returns (string[] memory) {\n        return categories;\n    }\n}\n",
  "sourcePath": "/Users/zianzhou/Desktop/marketplace/src/contracts/Marketplace.sol",
  "compiler": {
    "name": "solc",
    "version": "0.5.16+commit.9c3226ce.Emscripten.clang"
  },
  "schemaVersion": "3.4.16",
  "updatedAt": "2025-04-19T20:50:41.766Z",
  "networkType": "ethereum",
  "devdoc": {
    "methods": {}
  },
  "userdoc": {
    "methods": {}
  }
}