{
  "contractName": "Service",
  "abi": [
    {
      "inputs": [],
      "payable": false,
      "stateMutability": "nonpayable",
      "type": "constructor"
    },
    {
      "anonymous": false,
      "inputs": [
        {
          "indexed": false,
          "internalType": "uint256",
          "name": "id",
          "type": "uint256"
        },
        {
          "indexed": false,
          "internalType": "string",
          "name": "serviceType",
          "type": "string"
        },
        {
          "indexed": false,
          "internalType": "uint256",
          "name": "price",
          "type": "uint256"
        },
        {
          "indexed": false,
          "internalType": "address",
          "name": "owner",
          "type": "address"
        },
        {
          "indexed": false,
          "internalType": "address",
          "name": "purchaser",
          "type": "address"
        },
        {
          "indexed": false,
          "internalType": "bool",
          "name": "purchased",
          "type": "bool"
        }
      ],
      "name": "ServicePurchased",
      "type": "event"
    },
    {
      "constant": true,
      "inputs": [],
      "name": "name",
      "outputs": [
        {
          "internalType": "string",
          "name": "",
          "type": "string"
        }
      ],
      "payable": false,
      "stateMutability": "view",
      "type": "function"
    },
    {
      "constant": true,
      "inputs": [
        {
          "internalType": "address",
          "name": "",
          "type": "address"
        },
        {
          "internalType": "uint256",
          "name": "",
          "type": "uint256"
        }
      ],
      "name": "purchasedServices",
      "outputs": [
        {
          "internalType": "uint256",
          "name": "",
          "type": "uint256"
        }
      ],
      "payable": false,
      "stateMutability": "view",
      "type": "function"
    },
    {
      "constant": true,
      "inputs": [],
      "name": "serviceCount",
      "outputs": [
        {
          "internalType": "uint256",
          "name": "",
          "type": "uint256"
        }
      ],
      "payable": false,
      "stateMutability": "view",
      "type": "function"
    },
    {
      "constant": true,
      "inputs": [
        {
          "internalType": "string",
          "name": "",
          "type": "string"
        }
      ],
      "name": "servicePrices",
      "outputs": [
        {
          "internalType": "uint256",
          "name": "",
          "type": "uint256"
        }
      ],
      "payable": false,
      "stateMutability": "view",
      "type": "function"
    },
    {
      "constant": true,
      "inputs": [
        {
          "internalType": "uint256",
          "name": "",
          "type": "uint256"
        }
      ],
      "name": "serviceTypes",
      "outputs": [
        {
          "internalType": "string",
          "name": "",
          "type": "string"
        }
      ],
      "payable": false,
      "stateMutability": "view",
      "type": "function"
    },
    {
      "constant": true,
      "inputs": [
        {
          "internalType": "uint256",
          "name": "",
          "type": "uint256"
        }
      ],
      "name": "services",
      "outputs": [
        {
          "internalType": "uint256",
          "name": "id",
          "type": "uint256"
        },
        {
          "internalType": "string",
          "name": "serviceType",
          "type": "string"
        },
        {
          "internalType": "uint256",
          "name": "price",
          "type": "uint256"
        },
        {
          "internalType": "address",
          "name": "owner",
          "type": "address"
        },
        {
          "internalType": "bool",
          "name": "purchased",
          "type": "bool"
        },
        {
          "internalType": "address",
          "name": "purchaser",
          "type": "address"
        }
      ],
      "payable": false,
      "stateMutability": "view",
      "type": "function"
    },
    {
      "constant": false,
      "inputs": [
        {
          "internalType": "string",
          "name": "_serviceType",
          "type": "string"
        }
      ],
      "name": "purchaseService",
      "outputs": [],
      "payable": true,
      "stateMutability": "payable",
      "type": "function"
    },
    {
      "constant": true,
      "inputs": [
        {
          "internalType": "address",
          "name": "_owner",
          "type": "address"
        }
      ],
      "name": "getPurchasedServices",
      "outputs": [
        {
          "internalType": "uint256[]",
          "name": "",
          "type": "uint256[]"
        }
      ],
      "payable": false,
      "stateMutability": "view",
      "type": "function"
    },
    {
      "constant": true,
      "inputs": [
        {
          "internalType": "uint256",
          "name": "_id",
          "type": "uint256"
        }
      ],
      "name": "getService",
      "outputs": [
        {
          "internalType": "uint256",
          "name": "id",
          "type": "uint256"
        },
        {
          "internalType": "string",
          "name": "serviceType",
          "type": "string"
        },
        {
          "internalType": "uint256",
          "name": "price",
          "type": "uint256"
        },
        {
          "internalType": "address",
          "name": "owner",
          "type": "address"
        },
        {
          "internalType": "bool",
          "name": "purchased",
          "type": "bool"
        },
        {
          "internalType": "address",
          "name": "purchaser",
          "type": "address"
        }
      ],
      "payable": false,
      "stateMutability": "view",
      "type": "function"
    },
    {
      "constant": true,
      "inputs": [],
      "name": "getServiceTypes",
      "outputs": [
        {
          "internalType": "string[]",
          "name": "",
          "type": "string[]"
        }
      ],
      "payable": false,
      "stateMutability": "view",
      "type": "function"
    },
    {
      "constant": true,
      "inputs": [
        {
          "internalType": "string",
          "name": "_serviceType",
          "type": "string"
        }
      ],
      "name": "getServicePrice",
      "outputs": [
        {
          "internalType": "uint256",
          "name": "",
          "type": "uint256"
        }
      ],
      "payable": false,
      "stateMutability": "view",
      "type": "function"
    },
    {
      "constant": false,
      "inputs": [],
      "name": "withdraw",
      "outputs": [],
      "payable": false,
      "stateMutability": "nonpayable",
      "type": "function"
    }
  ],
  "bytecode": "0x608060405260006001556040518061012001604052806040518060400160405280600681526020017f526570616972000000000000000000000000000000000000000000000000000081525081526020016040518060400160405280600781526020017f496e7374616c6c0000000000000000000000000000000000000000000000000081525081526020016040518060400160405280600881526020017f5368697070696e6700000000000000000000000000000000000000000000000081525081526020016040518060400160405280600c81526020017f436f6e73756c746174696f6e000000000000000000000000000000000000000081525081526020016040518060400160405280600881526020017f547261696e696e6700000000000000000000000000000000000000000000000081525081526020016040518060400160405280600d81526020017f44617461205265636f766572790000000000000000000000000000000000000081525081526020016040518060400160405280600f81526020017f57656220446576656c6f706d656e74000000000000000000000000000000000081525081526020016040518060400160405280600e81526020017f536563757269747920417564697400000000000000000000000000000000000081525081526020016040518060400160405280600b81526020017f436c6f75642053657475700000000000000000000000000000000000000000008152508152506004906009620002389291906200041c565b503480156200024657600080fd5b506040518060400160405280601881526020017f4461707020556e69766572736974792053657276696365730000000000000000815250600090805190602001906200029492919062000483565b5067016345785d8a00006005604051620002ae906200089f565b90815260200160405180910390208190555066b1a2bc2ec500006005604051620002d890620008b6565b90815260200160405180910390208190555066470de4df8200006005604051620003029062000888565b908152602001604051809103902081905550670214e8348c4f000060056040516200032d90620008fb565b9081526020016040518091039020819055506702c68af0bb1400006005604051620003589062000912565b9081526020016040518091039020819055506703782dace9d9000060056040516200038390620008e4565b908152602001604051809103902081905550670429d069189e00006005604051620003ae90620008cd565b9081526020016040518091039020819055506704db7325476300006005604051620003d99062000940565b9081526020016040518091039020819055506701aa535d3d0c00006005604051620004049062000929565b90815260200160405180910390208190555062000962565b82805482825590600052602060002090810192821562000470579160200282015b828111156200046f5782518290805190602001906200045e9291906200050a565b50916020019190600101906200043d565b5b5090506200047f919062000591565b5090565b828054600181600116156101000203166002900490600052602060002090601f016020900481019282601f10620004c657805160ff1916838001178555620004f7565b82800160010185558215620004f7579182015b82811115620004f6578251825591602001919060010190620004d9565b5b509050620005069190620005c2565b5090565b828054600181600116156101000203166002900490600052602060002090601f016020900481019282601f106200054d57805160ff19168380011785556200057e565b828001600101855582156200057e579182015b828111156200057d57825182559160200191906001019062000560565b5b5090506200058d9190620005c2565b5090565b620005bf91905b80821115620005bb5760008181620005b19190620005ea565b5060010162000598565b5090565b90565b620005e791905b80821115620005e3576000816000905550600101620005c9565b5090565b90565b50805460018160011615610100020316600290046000825580601f1062000612575062000633565b601f016020900490600052602060002090810190620006329190620005c2565b5b50565b60006200064560088362000957565b91507f5368697070696e670000000000000000000000000000000000000000000000006000830152600882019050919050565b60006200068760068362000957565b91507f52657061697200000000000000000000000000000000000000000000000000006000830152600682019050919050565b6000620006c960078362000957565b91507f496e7374616c6c000000000000000000000000000000000000000000000000006000830152600782019050919050565b60006200070b600f8362000957565b91507f57656220446576656c6f706d656e7400000000000000000000000000000000006000830152600f82019050919050565b60006200074d600d8362000957565b91507f44617461205265636f76657279000000000000000000000000000000000000006000830152600d82019050919050565b60006200078f600c8362000957565b91507f436f6e73756c746174696f6e00000000000000000000000000000000000000006000830152600c82019050919050565b6000620007d160088362000957565b91507f547261696e696e670000000000000000000000000000000000000000000000006000830152600882019050919050565b600062000813600b8362000957565b91507f436c6f75642053657475700000000000000000000000000000000000000000006000830152600b82019050919050565b600062000855600e8362000957565b91507f53656375726974792041756469740000000000000000000000000000000000006000830152600e82019050919050565b6000620008958262000636565b9150819050919050565b6000620008ac8262000678565b9150819050919050565b6000620008c382620006ba565b9150819050919050565b6000620008da82620006fc565b9150819050919050565b6000620008f1826200073e565b9150819050919050565b6000620009088262000780565b9150819050919050565b60006200091f82620007c2565b9150819050919050565b6000620009368262000804565b9150819050919050565b60006200094d8262000846565b9150819050919050565b600081905092915050565b61180c80620009726000396000f3fe6080604052600436106100a75760003560e01c80634c3912e7116100645780634c3912e71461019d5780635d4403e0146101da5780636835d68a14610217578063c22c4f4314610254578063ef0e239b14610296578063f77fa897146102d8576100a7565b806306237526146100ac57806306fdde03146100d75780631b7da7661461010257806334138bab1461013f5780633ccfd60b1461016a578063462543e914610181575b600080fd5b3480156100b857600080fd5b506100c1610315565b6040516100ce9190611428565b60405180910390f35b3480156100e357600080fd5b506100ec61031b565b6040516100f991906113c6565b60405180910390f35b34801561010e57600080fd5b5061012960048036036101249190810190610f10565b6103b9565b60405161013691906113a4565b60405180910390f35b34801561014b57600080fd5b50610154610450565b6040516101619190611382565b60405180910390f35b34801561017657600080fd5b5061017f610539565b005b61019b60048036036101969190810190610fb6565b610588565b005b3480156101a957600080fd5b506101c460048036036101bf9190810190610ff7565b610850565b6040516101d191906113c6565b60405180910390f35b3480156101e657600080fd5b5061020160048036036101fc9190810190610fb6565b610909565b60405161020e9190611428565b60405180910390f35b34801561022357600080fd5b5061023e60048036036102399190810190610f39565b610931565b60405161024b9190611428565b60405180910390f35b34801561026057600080fd5b5061027b60048036036102769190810190610ff7565b61095f565b60405161028d96959493929190611513565b60405180910390f35b3480156102a257600080fd5b506102bd60048036036102b89190810190610ff7565b610a80565b6040516102cf969594939291906114ab565b60405180910390f35b3480156102e457600080fd5b506102ff60048036036102fa9190810190610f75565b610c66565b60405161030c9190611428565b60405180910390f35b60015481565b60008054600181600116156101000203166002900480601f0160208091040260200160405190810160405280929190818152602001828054600181600116156101000203166002900480156103b15780601f10610386576101008083540402835291602001916103b1565b820191906000526020600020905b81548152906001019060200180831161039457829003601f168201915b505050505081565b6060600360008373ffffffffffffffffffffffffffffffffffffffff1673ffffffffffffffffffffffffffffffffffffffff16815260200190815260200160002080548060200260200160405190810160405280929190818152602001828054801561044457602002820191906000526020600020905b815481526020019060010190808311610430575b50505050509050919050565b60606004805480602002602001604051908101604052809291908181526020016000905b82821015610530578382906000526020600020018054600181600116156101000203166002900480601f01602080910402602001604051908101604052809291908181526020018280546001816001161561010002031660029004801561051c5780601f106104f15761010080835404028352916020019161051c565b820191906000526020600020905b8154815290600101906020018083116104ff57829003601f168201915b505050505081526020019060010190610474565b50505050905090565b60003090508073ffffffffffffffffffffffffffffffffffffffff166108fc479081150290604051600060405180830381858888f19350505050158015610584573d6000803e3d6000fd5b5050565b61059181610c94565b6105d0576040517f08c379a00000000000000000000000000000000000000000000000000000000081526004016105c7906113e8565b60405180910390fd5b60006005826040516105e29190611354565b908152602001604051809103902054905080341015610636576040517f08c379a000000000000000000000000000000000000000000000000000000000815260040161062d90611408565b60405180910390fd5b6001600081548092919060010191905055506040518060c0016040528060015481526020018381526020018281526020013073ffffffffffffffffffffffffffffffffffffffff1681526020016001151581526020013373ffffffffffffffffffffffffffffffffffffffff168152506002600060015481526020019081526020016000206000820151816000015560208201518160010190805190602001906106e1929190610d35565b506040820151816002015560608201518160030160006101000a81548173ffffffffffffffffffffffffffffffffffffffff021916908373ffffffffffffffffffffffffffffffffffffffff16021790555060808201518160030160146101000a81548160ff02191690831515021790555060a08201518160040160006101000a81548173ffffffffffffffffffffffffffffffffffffffff021916908373ffffffffffffffffffffffffffffffffffffffff160217905550905050600360003373ffffffffffffffffffffffffffffffffffffffff1673ffffffffffffffffffffffffffffffffffffffff16815260200190815260200160002060015490806001815401808255809150509060018203906000526020600020016000909192909190915055507f995df13cf70b037da6dcc1445646aa504b9ba9c1f3834d3e21118cbf821123e060015483833033600160405161084496959493929190611443565b60405180910390a15050565b6004818154811061085d57fe5b906000526020600020016000915090508054600181600116156101000203166002900480601f0160208091040260200160405190810160405280929190818152602001828054600181600116156101000203166002900480156109015780601f106108d657610100808354040283529160200191610901565b820191906000526020600020905b8154815290600101906020018083116108e457829003601f168201915b505050505081565b600060058260405161091b9190611354565b9081526020016040518091039020549050919050565b6003602052816000526040600020818154811061094a57fe5b90600052602060002001600091509150505481565b6002602052806000526040600020600091509050806000015490806001018054600181600116156101000203166002900480601f016020809104026020016040519081016040528092919081815260200182805460018160011615610100020316600290048015610a115780601f106109e657610100808354040283529160200191610a11565b820191906000526020600020905b8154815290600101906020018083116109f457829003601f168201915b5050505050908060020154908060030160009054906101000a900473ffffffffffffffffffffffffffffffffffffffff16908060030160149054906101000a900460ff16908060040160009054906101000a900473ffffffffffffffffffffffffffffffffffffffff16905086565b60006060600080600080610a92610db5565b600260008981526020019081526020016000206040518060c001604052908160008201548152602001600182018054600181600116156101000203166002900480601f016020809104026020016040519081016040528092919081815260200182805460018160011615610100020316600290048015610b535780601f10610b2857610100808354040283529160200191610b53565b820191906000526020600020905b815481529060010190602001808311610b3657829003601f168201915b50505050508152602001600282015481526020016003820160009054906101000a900473ffffffffffffffffffffffffffffffffffffffff1673ffffffffffffffffffffffffffffffffffffffff1673ffffffffffffffffffffffffffffffffffffffff1681526020016003820160149054906101000a900460ff161515151581526020016004820160009054906101000a900473ffffffffffffffffffffffffffffffffffffffff1673ffffffffffffffffffffffffffffffffffffffff1673ffffffffffffffffffffffffffffffffffffffff16815250509050806000015181602001518260400151836060015184608001518560a001518494509650965096509650965096505091939550919395565b6005818051602081018201805184825260208301602085012081835280955050505050506000915090505481565b600080600090505b600480549050811015610d2a5782604051602001610cba9190611354565b6040516020818303038152906040528051906020012060048281548110610cdd57fe5b90600052602060002001604051602001610cf7919061136b565b604051602081830303815290604052805190602001201415610d1d576001915050610d30565b8080600101915050610c9c565b50600090505b919050565b828054600181600116156101000203166002900490600052602060002090601f016020900481019282601f10610d7657805160ff1916838001178555610da4565b82800160010185558215610da4579182015b82811115610da3578251825591602001919060010190610d88565b5b509050610db19190610e19565b5090565b6040518060c00160405280600081526020016060815260200160008152602001600073ffffffffffffffffffffffffffffffffffffffff168152602001600015158152602001600073ffffffffffffffffffffffffffffffffffffffff1681525090565b610e3b91905b80821115610e37576000816000905550600101610e1f565b5090565b90565b600081359050610e4d8161179b565b92915050565b600082601f830112610e6457600080fd5b8135610e77610e72826115a8565b61157b565b91508082526020830160208301858383011115610e9357600080fd5b610e9e838284611748565b50505092915050565b600082601f830112610eb857600080fd5b8135610ecb610ec6826115d4565b61157b565b91508082526020830160208301858383011115610ee757600080fd5b610ef2838284611748565b50505092915050565b600081359050610f0a816117b2565b92915050565b600060208284031215610f2257600080fd5b6000610f3084828501610e3e565b91505092915050565b60008060408385031215610f4c57600080fd5b6000610f5a85828601610e3e565b9250506020610f6b85828601610efb565b9150509250929050565b600060208284031215610f8757600080fd5b600082013567ffffffffffffffff811115610fa157600080fd5b610fad84828501610e53565b91505092915050565b600060208284031215610fc857600080fd5b600082013567ffffffffffffffff811115610fe257600080fd5b610fee84828501610ea7565b91505092915050565b60006020828403121561100957600080fd5b600061101784828501610efb565b91505092915050565b600061102c83836111b6565b905092915050565b60006110408383611336565b60208301905092915050565b61105581611712565b82525050565b611064816116ca565b82525050565b600061107582611635565b61107f818561167b565b93508360208202850161109185611600565b8060005b858110156110cd57848403895281516110ae8582611020565b94506110b983611661565b925060208a01995050600181019050611095565b50829750879550505050505092915050565b60006110ea82611640565b6110f4818561168c565b93506110ff83611610565b8060005b838110156111305781516111178882611034565b97506111228361166e565b925050600181019050611103565b5085935050505092915050565b611146816116dc565b82525050565b600061115782611656565b61116181856116ae565b9350611171818560208601611757565b61117a8161178a565b840191505092915050565b600061119082611656565b61119a81856116bf565b93506111aa818560208601611757565b80840191505092915050565b60006111c18261164b565b6111cb818561169d565b93506111db818560208601611757565b6111e48161178a565b840191505092915050565b60006111fa8261164b565b61120481856116ae565b9350611214818560208601611757565b61121d8161178a565b840191505092915050565b600081546001811660008114611245576001811461126a576112ae565b607f600283041661125681876116bf565b955060ff19831686528086019350506112ae565b6002820461127881876116bf565b955061128385611620565b60005b828110156112a557815481890152600182019150602081019050611286565b82880195505050505b505092915050565b60006112c36014836116ae565b91507f496e76616c6964207365727669636520747970650000000000000000000000006000830152602082019050919050565b60006113036014836116ae565b91507f496e73756666696369656e74207061796d656e740000000000000000000000006000830152602082019050919050565b61133f81611708565b82525050565b61134e81611708565b82525050565b60006113608284611185565b915081905092915050565b60006113778284611228565b915081905092915050565b6000602082019050818103600083015261139c818461106a565b905092915050565b600060208201905081810360008301526113be81846110df565b905092915050565b600060208201905081810360008301526113e081846111ef565b905092915050565b60006020820190508181036000830152611401816112b6565b9050919050565b60006020820190508181036000830152611421816112f6565b9050919050565b600060208201905061143d6000830184611345565b92915050565b600060c0820190506114586000830189611345565b818103602083015261146a818861114c565b90506114796040830187611345565b611486606083018661105b565b611493608083018561104c565b6114a060a083018461113d565b979650505050505050565b600060c0820190506114c06000830189611345565b81810360208301526114d2818861114c565b90506114e16040830187611345565b6114ee606083018661105b565b6114fb608083018561113d565b61150860a083018461105b565b979650505050505050565b600060c0820190506115286000830189611345565b818103602083015261153a81886111ef565b90506115496040830187611345565b611556606083018661105b565b611563608083018561113d565b61157060a083018461105b565b979650505050505050565b6000604051905081810181811067ffffffffffffffff8211171561159e57600080fd5b8060405250919050565b600067ffffffffffffffff8211156115bf57600080fd5b601f19601f8301169050602081019050919050565b600067ffffffffffffffff8211156115eb57600080fd5b601f19601f8301169050602081019050919050565b6000819050602082019050919050565b6000819050602082019050919050565b60008190508160005260206000209050919050565b600081519050919050565b600081519050919050565b600081519050919050565b600081519050919050565b6000602082019050919050565b6000602082019050919050565b600082825260208201905092915050565b600082825260208201905092915050565b600082825260208201905092915050565b600082825260208201905092915050565b600081905092915050565b60006116d5826116e8565b9050919050565b60008115159050919050565b600073ffffffffffffffffffffffffffffffffffffffff82169050919050565b6000819050919050565b600061171d82611724565b9050919050565b600061172f82611736565b9050919050565b6000611741826116e8565b9050919050565b82818337600083830152505050565b60005b8381101561177557808201518184015260208101905061175a565b83811115611784576000848401525b50505050565b6000601f19601f8301169050919050565b6117a4816116ca565b81146117af57600080fd5b50565b6117bb81611708565b81146117c657600080fd5b5056fea365627a7a723158206ea9c1a73ecc341dd8fbe84560dfa0e2af829a2a6e79aaea1a72fec36878ee436c6578706572696d656e74616cf564736f6c63430005100040",
  "source": "pragma solidity ^0.5.0;\npragma experimental ABIEncoderV2;\n\ncontract Service {\n    string public name;\n    uint public serviceCount = 0;\n    mapping(uint => ServiceItem) public services;\n    \n    // Mapping to track services purchased by each address\n    mapping(address => uint[]) public purchasedServices;\n    \n    // Define available services\n    string[] public serviceTypes = [\n        \"Repair\",\n        \"Install\",\n        \"Shipping\",\n        \"Consultation\",\n        \"Training\",\n        \"Data Recovery\",\n        \"Web Development\",\n        \"Security Audit\",\n        \"Cloud Setup\"\n    ];\n    \n    // Define service prices (in wei)\n    mapping(string => uint) public servicePrices;\n    \n    struct ServiceItem {\n        uint id;\n        string serviceType;\n        uint price;\n        address owner;\n        bool purchased;\n        address purchaser;\n    }\n\n    event ServicePurchased(\n        uint id,\n        string serviceType,\n        uint price,\n        address owner,\n        address purchaser,\n        bool purchased\n    );\n\n    constructor() public {\n        name = \"Dapp University Services\";\n        // Initialize service prices\n        servicePrices[\"Repair\"] = 0.1 ether;        // 0.1 ETH\n        servicePrices[\"Install\"] = 0.05 ether;      // 0.05 ETH\n        servicePrices[\"Shipping\"] = 0.02 ether;     // 0.02 ETH\n        servicePrices[\"Consultation\"] = 0.15 ether; // 0.15 ETH\n        servicePrices[\"Training\"] = 0.2 ether;      // 0.2 ETH\n        servicePrices[\"Data Recovery\"] = 0.25 ether; // 0.25 ETH\n        servicePrices[\"Web Development\"] = 0.3 ether; // 0.3 ETH\n        servicePrices[\"Security Audit\"] = 0.35 ether; // 0.35 ETH\n        servicePrices[\"Cloud Setup\"] = 0.12 ether;   // 0.12 ETH\n    }\n\n    // Helper function to validate service type\n    function isValidServiceType(string memory _serviceType) internal view returns (bool) {\n        for (uint i = 0; i < serviceTypes.length; i++) {\n            if (keccak256(abi.encodePacked(serviceTypes[i])) == keccak256(abi.encodePacked(_serviceType))) {\n                return true;\n            }\n        }\n        return false;\n    }\n\n    function purchaseService(string memory _serviceType) public payable {\n        // Validate service type\n        require(isValidServiceType(_serviceType), \"Invalid service type\");\n        \n        // Get the price for the service\n        uint price = servicePrices[_serviceType];\n        \n        // Check if enough ETH was sent\n        require(msg.value >= price, \"Insufficient payment\");\n        \n        // Increment service count\n        serviceCount++;\n        \n        // Create and purchase the service in one step\n        services[serviceCount] = ServiceItem(\n            serviceCount,\n            _serviceType,\n            price,\n            address(this),  // Contract holds the service\n            true,          // Marked as purchased immediately\n            msg.sender     // Purchaser\n        );\n        \n        // Add to purchaser's services\n        purchasedServices[msg.sender].push(serviceCount);\n        \n        // Emit event\n        emit ServicePurchased(\n            serviceCount,\n            _serviceType,\n            price,\n            address(this),\n            msg.sender,\n            true\n        );\n    }\n\n    // Function to get services purchased by an address\n    function getPurchasedServices(address _owner) public view returns (uint[] memory) {\n        return purchasedServices[_owner];\n    }\n\n    // Helper function to get service details\n    function getService(uint _id) public view returns (\n        uint id,\n        string memory serviceType,\n        uint price,\n        address owner,\n        bool purchased,\n        address purchaser\n    ) {\n        ServiceItem memory service = services[_id];\n        return (\n            service.id,\n            service.serviceType,\n            service.price,\n            service.owner,\n            service.purchased,\n            service.purchaser\n        );\n    }\n\n    // Helper function to get all service types\n    function getServiceTypes() public view returns (string[] memory) {\n        return serviceTypes;\n    }\n\n    // Helper function to get price for a service type\n    function getServicePrice(string memory _serviceType) public view returns (uint) {\n        return servicePrices[_serviceType];\n    }\n\n    // Function to withdraw contract balance (only owner can call this)\n    function withdraw() public {\n        address payable owner = address(uint160(address(this)));\n        owner.transfer(address(this).balance);\n    }\n} ",
  "sourcePath": "/Users/zianzhou/Desktop/marketplace/src/contracts/Service.sol",
  "compiler": {
    "name": "solc",
    "version": "0.5.16+commit.9c3226ce.Emscripten.clang"
  },
  "schemaVersion": "3.4.16",
  "updatedAt": "2025-04-20T15:53:38.872Z",
  "networkType": "ethereum",
  "devdoc": {
    "methods": {}
  },
  "userdoc": {
    "methods": {}
  }
}